{
  "address": "0x03850668238a268F32A8523358eb40b18FC818C4",
  "abi": [
    {
      "inputs": [
        {
          "internalType": "string",
          "name": "name",
          "type": "string"
        },
        {
          "internalType": "string",
          "name": "symbol",
          "type": "string"
        }
      ],
      "stateMutability": "nonpayable",
      "type": "constructor"
    },
    {
      "anonymous": false,
      "inputs": [
        {
          "indexed": true,
          "internalType": "address",
          "name": "owner",
          "type": "address"
        },
        {
          "indexed": true,
          "internalType": "address",
          "name": "approved",
          "type": "address"
        },
        {
          "indexed": true,
          "internalType": "uint256",
          "name": "tokenId",
          "type": "uint256"
        }
      ],
      "name": "Approval",
      "type": "event"
    },
    {
      "anonymous": false,
      "inputs": [
        {
          "indexed": true,
          "internalType": "address",
          "name": "owner",
          "type": "address"
        },
        {
          "indexed": true,
          "internalType": "address",
          "name": "operator",
          "type": "address"
        },
        {
          "indexed": false,
          "internalType": "bool",
          "name": "approved",
          "type": "bool"
        }
      ],
      "name": "ApprovalForAll",
      "type": "event"
    },
    {
      "anonymous": false,
      "inputs": [
        {
          "indexed": false,
          "internalType": "uint256",
          "name": "slotId",
          "type": "uint256"
        },
        {
          "indexed": false,
          "internalType": "address",
          "name": "assetTokenAddress",
          "type": "address"
        }
      ],
      "name": "NewSlot",
      "type": "event"
    },
    {
      "anonymous": false,
      "inputs": [
        {
          "indexed": true,
          "internalType": "address",
          "name": "previousOwner",
          "type": "address"
        },
        {
          "indexed": true,
          "internalType": "address",
          "name": "newOwner",
          "type": "address"
        }
      ],
      "name": "OwnershipTransferred",
      "type": "event"
    },
    {
      "anonymous": false,
      "inputs": [
        {
          "indexed": true,
          "internalType": "address",
          "name": "from",
          "type": "address"
        },
        {
          "indexed": true,
          "internalType": "address",
          "name": "to",
          "type": "address"
        },
        {
          "indexed": true,
          "internalType": "uint256",
          "name": "tokenId",
          "type": "uint256"
        }
      ],
      "name": "Transfer",
      "type": "event"
    },
    {
      "inputs": [
        {
          "internalType": "address",
          "name": "to",
          "type": "address"
        },
        {
          "internalType": "uint256",
          "name": "tokenId",
          "type": "uint256"
        }
      ],
      "name": "approve",
      "outputs": [],
      "stateMutability": "nonpayable",
      "type": "function"
    },
    {
      "inputs": [
        {
          "internalType": "address",
          "name": "",
          "type": "address"
        },
        {
          "internalType": "uint256",
          "name": "",
          "type": "uint256"
        }
      ],
      "name": "assetSlots",
      "outputs": [
        {
          "internalType": "uint256",
          "name": "",
          "type": "uint256"
        }
      ],
      "stateMutability": "view",
      "type": "function"
    },
    {
      "inputs": [
        {
          "internalType": "uint256",
          "name": "tokenId",
          "type": "uint256"
        },
        {
          "internalType": "uint256",
          "name": "slotId",
          "type": "uint256"
        },
        {
          "internalType": "uint256",
          "name": "slotAssetTokenId",
          "type": "uint256"
        },
        {
          "internalType": "uint256",
          "name": "amount",
          "type": "uint256"
        }
      ],
      "name": "attach",
      "outputs": [],
      "stateMutability": "nonpayable",
      "type": "function"
    },
    {
      "inputs": [
        {
          "internalType": "uint256",
          "name": "tokenId",
          "type": "uint256"
        },
        {
          "internalType": "uint256[]",
          "name": "slotIds",
          "type": "uint256[]"
        },
        {
          "internalType": "uint256[]",
          "name": "slotAssetTokenIds",
          "type": "uint256[]"
        },
        {
          "internalType": "uint256[]",
          "name": "amount",
          "type": "uint256[]"
        }
      ],
      "name": "attachBatch",
      "outputs": [],
      "stateMutability": "nonpayable",
      "type": "function"
    },
    {
      "inputs": [
        {
          "internalType": "address",
          "name": "owner",
          "type": "address"
        }
      ],
      "name": "balanceOf",
      "outputs": [
        {
          "internalType": "uint256",
          "name": "",
          "type": "uint256"
        }
      ],
      "stateMutability": "view",
      "type": "function"
    },
    {
      "inputs": [
        {
          "internalType": "uint256",
          "name": "slotId",
          "type": "uint256"
        },
        {
          "internalType": "address",
          "name": "assetTokenAddress",
          "type": "address"
        }
      ],
      "name": "configureSlot",
      "outputs": [],
      "stateMutability": "nonpayable",
      "type": "function"
    },
    {
      "inputs": [
        {
          "internalType": "uint256[]",
          "name": "slotIds",
          "type": "uint256[]"
        },
        {
          "internalType": "address[]",
          "name": "assetTokenAddresses",
          "type": "address[]"
        }
      ],
      "name": "configureSlots",
      "outputs": [],
      "stateMutability": "nonpayable",
      "type": "function"
    },
    {
      "inputs": [
        {
          "internalType": "uint256",
          "name": "tokenId",
          "type": "uint256"
        },
        {
          "internalType": "uint256",
          "name": "slotId",
          "type": "uint256"
        }
      ],
      "name": "detach",
      "outputs": [],
      "stateMutability": "nonpayable",
      "type": "function"
    },
    {
      "inputs": [
        {
          "internalType": "uint256",
          "name": "tokenId",
          "type": "uint256"
        }
      ],
      "name": "getApproved",
      "outputs": [
        {
          "internalType": "address",
          "name": "",
          "type": "address"
        }
      ],
      "stateMutability": "view",
      "type": "function"
    },
    {
      "inputs": [
        {
          "internalType": "uint256",
          "name": "tokenId",
          "type": "uint256"
        }
      ],
      "name": "getTokenSlotsInfo",
      "outputs": [
        {
          "components": [
            {
              "internalType": "uint256",
              "name": "slotId",
              "type": "uint256"
            },
            {
              "internalType": "address",
              "name": "slotAssetAddress",
              "type": "address"
            },
            {
              "internalType": "uint256",
              "name": "slotAssetTokenId",
              "type": "uint256"
            },
            {
              "internalType": "uint256",
              "name": "slotAssetTokenAmount",
              "type": "uint256"
            },
            {
              "internalType": "bool",
              "name": "slotFilled",
              "type": "bool"
            }
          ],
          "internalType": "struct ComposableNFT.SlotInfo[]",
          "name": "",
          "type": "tuple[]"
        }
      ],
      "stateMutability": "view",
      "type": "function"
    },
    {
      "inputs": [
        {
          "internalType": "uint256",
          "name": "slotId",
          "type": "uint256"
        }
      ],
      "name": "is1155AssetSlot",
      "outputs": [
        {
          "internalType": "bool",
          "name": "",
          "type": "bool"
        }
      ],
      "stateMutability": "view",
      "type": "function"
    },
    {
      "inputs": [
        {
          "internalType": "uint256",
          "name": "slotId",
          "type": "uint256"
        }
      ],
      "name": "is721AssetSlot",
      "outputs": [
        {
          "internalType": "bool",
          "name": "",
          "type": "bool"
        }
      ],
      "stateMutability": "view",
      "type": "function"
    },
    {
      "inputs": [
        {
          "internalType": "address",
          "name": "owner",
          "type": "address"
        },
        {
          "internalType": "address",
          "name": "operator",
          "type": "address"
        }
      ],
      "name": "isApprovedForAll",
      "outputs": [
        {
          "internalType": "bool",
          "name": "",
          "type": "bool"
        }
      ],
      "stateMutability": "view",
      "type": "function"
    },
    {
      "inputs": [],
      "name": "name",
      "outputs": [
        {
          "internalType": "string",
          "name": "",
          "type": "string"
        }
      ],
      "stateMutability": "view",
      "type": "function"
    },
    {
      "inputs": [],
      "name": "owner",
      "outputs": [
        {
          "internalType": "address",
          "name": "",
          "type": "address"
        }
      ],
      "stateMutability": "view",
      "type": "function"
    },
    {
      "inputs": [
        {
          "internalType": "uint256",
          "name": "tokenId",
          "type": "uint256"
        }
      ],
      "name": "ownerOf",
      "outputs": [
        {
          "internalType": "address",
          "name": "",
          "type": "address"
        }
      ],
      "stateMutability": "view",
      "type": "function"
    },
    {
      "inputs": [],
      "name": "renounceOwnership",
      "outputs": [],
      "stateMutability": "nonpayable",
      "type": "function"
    },
    {
      "inputs": [
        {
          "internalType": "address",
          "name": "to",
          "type": "address"
        },
        {
          "internalType": "string",
          "name": "uri",
          "type": "string"
        }
      ],
      "name": "safeMint",
      "outputs": [],
      "stateMutability": "nonpayable",
      "type": "function"
    },
    {
      "inputs": [
        {
          "internalType": "address",
          "name": "from",
          "type": "address"
        },
        {
          "internalType": "address",
          "name": "to",
          "type": "address"
        },
        {
          "internalType": "uint256",
          "name": "tokenId",
          "type": "uint256"
        }
      ],
      "name": "safeTransferFrom",
      "outputs": [],
      "stateMutability": "nonpayable",
      "type": "function"
    },
    {
      "inputs": [
        {
          "internalType": "address",
          "name": "from",
          "type": "address"
        },
        {
          "internalType": "address",
          "name": "to",
          "type": "address"
        },
        {
          "internalType": "uint256",
          "name": "tokenId",
          "type": "uint256"
        },
        {
          "internalType": "bytes",
          "name": "data",
          "type": "bytes"
        }
      ],
      "name": "safeTransferFrom",
      "outputs": [],
      "stateMutability": "nonpayable",
      "type": "function"
    },
    {
      "inputs": [
        {
          "internalType": "address",
          "name": "operator",
          "type": "address"
        },
        {
          "internalType": "bool",
          "name": "approved",
          "type": "bool"
        }
      ],
      "name": "setApprovalForAll",
      "outputs": [],
      "stateMutability": "nonpayable",
      "type": "function"
    },
    {
      "inputs": [
        {
          "internalType": "uint256",
          "name": "",
          "type": "uint256"
        }
      ],
      "name": "slotAsset",
      "outputs": [
        {
          "internalType": "address",
          "name": "",
          "type": "address"
        }
      ],
      "stateMutability": "view",
      "type": "function"
    },
    {
      "inputs": [
        {
          "internalType": "uint256",
          "name": "",
          "type": "uint256"
        }
      ],
      "name": "slots",
      "outputs": [
        {
          "internalType": "uint256",
          "name": "",
          "type": "uint256"
        }
      ],
      "stateMutability": "view",
      "type": "function"
    },
    {
      "inputs": [
        {
          "internalType": "bytes4",
          "name": "interfaceId",
          "type": "bytes4"
        }
      ],
      "name": "supportsInterface",
      "outputs": [
        {
          "internalType": "bool",
          "name": "",
          "type": "bool"
        }
      ],
      "stateMutability": "view",
      "type": "function"
    },
    {
      "inputs": [],
      "name": "symbol",
      "outputs": [
        {
          "internalType": "string",
          "name": "",
          "type": "string"
        }
      ],
      "stateMutability": "view",
      "type": "function"
    },
    {
      "inputs": [
        {
          "internalType": "uint256",
          "name": "index",
          "type": "uint256"
        }
      ],
      "name": "tokenByIndex",
      "outputs": [
        {
          "internalType": "uint256",
          "name": "",
          "type": "uint256"
        }
      ],
      "stateMutability": "view",
      "type": "function"
    },
    {
      "inputs": [
        {
          "internalType": "address",
          "name": "owner",
          "type": "address"
        },
        {
          "internalType": "uint256",
          "name": "index",
          "type": "uint256"
        }
      ],
      "name": "tokenOfOwnerByIndex",
      "outputs": [
        {
          "internalType": "uint256",
          "name": "",
          "type": "uint256"
        }
      ],
      "stateMutability": "view",
      "type": "function"
    },
    {
      "inputs": [
        {
          "internalType": "uint256",
          "name": "tokenId",
          "type": "uint256"
        }
      ],
      "name": "tokenURI",
      "outputs": [
        {
          "internalType": "string",
          "name": "",
          "type": "string"
        }
      ],
      "stateMutability": "view",
      "type": "function"
    },
    {
      "inputs": [],
      "name": "totalSupply",
      "outputs": [
        {
          "internalType": "uint256",
          "name": "",
          "type": "uint256"
        }
      ],
      "stateMutability": "view",
      "type": "function"
    },
    {
      "inputs": [
        {
          "internalType": "address",
          "name": "from",
          "type": "address"
        },
        {
          "internalType": "address",
          "name": "to",
          "type": "address"
        },
        {
          "internalType": "uint256",
          "name": "tokenId",
          "type": "uint256"
        }
      ],
      "name": "transferFrom",
      "outputs": [],
      "stateMutability": "nonpayable",
      "type": "function"
    },
    {
      "inputs": [
        {
          "internalType": "address",
          "name": "newOwner",
          "type": "address"
        }
      ],
      "name": "transferOwnership",
      "outputs": [],
      "stateMutability": "nonpayable",
      "type": "function"
    }
  ],
  "transactionHash": "0xb617d84e276551edee5be7e226cf89dc8b9bd05e0a09130310227e66c10629a9",
  "args": [
    "ERC721Item",
    "ERC721Item"
  ],
  "numDeployments": 1,
  "solcInputHash": "fd59f0c944586595d720a1a2d5ffb839",
  "bytecode": "0x60806040523480156200001157600080fd5b506040516200316338038062003163833981016040819052620000349162000197565b81818181600062000046838262000290565b50600162000055828262000290565b505050620000726200006c6200007c60201b60201c565b62000080565b505050506200035c565b3390565b600b80546001600160a01b038381166001600160a01b0319831681179093556040519116919082907f8be0079c531659141344cd1fd0a4f28419497f9722a3daafe3b4186f6b6457e090600090a35050565b634e487b7160e01b600052604160045260246000fd5b600082601f830112620000fa57600080fd5b81516001600160401b0380821115620001175762000117620000d2565b604051601f8301601f19908116603f01168101908282118183101715620001425762000142620000d2565b816040528381526020925086838588010111156200015f57600080fd5b600091505b8382101562000183578582018301518183018401529082019062000164565b600093810190920192909252949350505050565b60008060408385031215620001ab57600080fd5b82516001600160401b0380821115620001c357600080fd5b620001d186838701620000e8565b93506020850151915080821115620001e857600080fd5b50620001f785828601620000e8565b9150509250929050565b600181811c908216806200021657607f821691505b6020821081036200023757634e487b7160e01b600052602260045260246000fd5b50919050565b601f8211156200028b57600081815260208120601f850160051c81016020861015620002665750805b601f850160051c820191505b81811015620002875782815560010162000272565b5050505b505050565b81516001600160401b03811115620002ac57620002ac620000d2565b620002c481620002bd845462000201565b846200023d565b602080601f831160018114620002fc5760008415620002e35750858301515b600019600386901b1c1916600185901b17855562000287565b600085815260208120601f198616915b828110156200032d578886015182559484019460019091019084016200030c565b50858210156200034c5787850151600019600388901b60f8161c191681555b5050505050600190811b01905550565b612df7806200036c6000396000f3fe608060405234801561001057600080fd5b50600436106101e55760003560e01c806370a082311161010f578063b7884da7116100a2578063d204c45e11610071578063d204c45e14610426578063d9dd1df614610439578063e985e9c51461044c578063f2fde38b1461048857600080fd5b8063b7884da7146103cd578063b88d4fde146103ed578063c60e7ab014610400578063c87b56dd1461041357600080fd5b80638da5cb5b116100de5780638da5cb5b1461038e57806395d89b411461039f578063a22cb465146103a7578063a73bb7a1146103ba57600080fd5b806370a0823114610337578063715018a61461034a57806373f9f84c14610352578063847308421461037b57600080fd5b80632f745c59116101875780634f6ccce7116101565780634f6ccce7146102eb578063541255ea146102fe57806358340f39146103115780636352211e1461032457600080fd5b80632f745c591461029f578063387dd9e9146102b257806342842e0e146102c5578063457e50a9146102d857600080fd5b8063095ea7b3116101c3578063095ea7b31461025257806318160ddd146102675780631d608a4f1461027957806323b872dd1461028c57600080fd5b806301ffc9a7146101ea57806306fdde0314610212578063081812fc14610227575b600080fd5b6101fd6101f8366004612441565b61049b565b60405190151581526020015b60405180910390f35b61021a6104ac565b60405161020991906124ae565b61023a6102353660046124c1565b61053e565b6040516001600160a01b039091168152602001610209565b6102656102603660046124f6565b610565565b005b6008545b604051908152602001610209565b6102656102873660046125f6565b61067f565b61026561029a3660046126b8565b6106e1565b61026b6102ad3660046124f6565b610712565b61026b6102c03660046124c1565b6107a8565b6102656102d33660046126b8565b6107c9565b6102656102e63660046126f4565b6107e4565b61026b6102f93660046124c1565b610963565b6101fd61030c3660046124c1565b6109f6565b61026561031f366004612720565b610a1f565b61023a6103323660046124c1565b610b62565b61026b6103453660046127b2565b610bc2565b610265610c48565b61023a6103603660046124c1565b600e602052600090815260409020546001600160a01b031681565b6102656103893660046127cd565b610c5c565b600b546001600160a01b031661023a565b61021a610e95565b6102656103b53660046127ef565b610ea4565b61026b6103c83660046124f6565b610eb3565b6103e06103db3660046124c1565b610ee4565b604051610209919061282b565b6102656103fb3660046128fc565b6110ed565b6101fd61040e3660046124c1565b611125565b61021a6104213660046124c1565b61114e565b61026561043436600461296c565b611159565b6102656104473660046129ce565b611190565b6101fd61045a366004612a00565b6001600160a01b03918216600090815260056020908152604080832093909416825291909152205460ff1690565b6102656104963660046127b2565b6111d5565b60006104a68261124e565b92915050565b6060600080546104bb90612a2a565b80601f01602080910402602001604051908101604052809291908181526020018280546104e790612a2a565b80156105345780601f1061050957610100808354040283529160200191610534565b820191906000526020600020905b81548152906001019060200180831161051757829003601f168201915b5050505050905090565b600061054982611273565b506000908152600460205260409020546001600160a01b031690565b600061057082610b62565b9050806001600160a01b0316836001600160a01b0316036105e25760405162461bcd60e51b815260206004820152602160248201527f4552433732313a20617070726f76616c20746f2063757272656e74206f776e656044820152603960f91b60648201526084015b60405180910390fd5b336001600160a01b03821614806105fe57506105fe813361045a565b6106705760405162461bcd60e51b815260206004820152603d60248201527f4552433732313a20617070726f76652063616c6c6572206973206e6f7420746f60448201527f6b656e206f776e6572206f7220617070726f76656420666f7220616c6c00000060648201526084016105d9565b61067a83836112d2565b505050565b610687611340565b60005b825181101561067a576106cf8382815181106106a8576106a8612a64565b60200260200101518383815181106106c2576106c2612a64565b60200260200101516107e4565b806106d981612a90565b91505061068a565b6106eb338261139a565b6107075760405162461bcd60e51b81526004016105d990612aa9565b61067a838383611419565b600061071d83610bc2565b821061077f5760405162461bcd60e51b815260206004820152602b60248201527f455243373231456e756d657261626c653a206f776e657220696e646578206f7560448201526a74206f6620626f756e647360a81b60648201526084016105d9565b506001600160a01b03919091166000908152600660209081526040808320938352929052205490565b600f81815481106107b857600080fd5b600091825260209091200154905081565b61067a838383604051806020016040528060008152506110ed565b6107ec611340565b6107fd816380ac58cd60e01b61158a565b80610814575061081481636cdb3d1360e11b61158a565b6108585760405162461bcd60e51b8152602060048201526015602482015274496e76616c6964206173736574206164647265737360581b60448201526064016105d9565b6000828152600e60205260409020546001600160a01b0316156108ab5760405162461bcd60e51b815260206004820152600b60248201526a536c6f742065786973747360a81b60448201526064016105d9565b6000828152600e6020908152604080832080546001600160a01b0319166001600160a01b038616908117909155808452600d835281842080546001818101835591865284862001879055600f805491820181559094527f8d1108e10bcb7c27dddfc02ed9d693a074039d026cf4ea4240b40f7d581ac8029093018590558051858152918201929092527fdf4437ac00afd804dc605f59656887e2cc64a3fab598a1700eddb93d4b55181a910160405180910390a15050565b600061096e60085490565b82106109d15760405162461bcd60e51b815260206004820152602c60248201527f455243373231456e756d657261626c653a20676c6f62616c20696e646578206f60448201526b7574206f6620626f756e647360a01b60648201526084016105d9565b600882815481106109e4576109e4612a64565b90600052602060002001549050919050565b6000818152600e60205260408120546104a6906001600160a01b0316636cdb3d1360e11b61158a565b610a2884610b62565b6001600160a01b0316336001600160a01b031614610a585760405162461bcd60e51b81526004016105d990612af6565b8151835114610a9f5760405162461bcd60e51b8152602060048201526013602482015272092dcc6dedce6d2e6e8cadce840d8cadccee8d606b1b60448201526064016105d9565b8051825114610ae65760405162461bcd60e51b8152602060048201526013602482015272092dcc6dedce6d2e6e8cadce840d8cadccee8d606b1b60448201526064016105d9565b60005b8351811015610b5b57610b4985858381518110610b0857610b08612a64565b6020026020010151858481518110610b2257610b22612a64565b6020026020010151858581518110610b3c57610b3c612a64565b60200260200101516115ad565b80610b5381612a90565b915050610ae9565b5050505050565b6000818152600260205260408120546001600160a01b0316806104a65760405162461bcd60e51b8152602060048201526018602482015277115490cdcc8c4e881a5b9d985b1a59081d1bdad95b88125160421b60448201526064016105d9565b60006001600160a01b038216610c2c5760405162461bcd60e51b815260206004820152602960248201527f4552433732313a2061646472657373207a65726f206973206e6f7420612076616044820152683634b21037bbb732b960b91b60648201526084016105d9565b506001600160a01b031660009081526003602052604090205490565b610c50611340565b610c5a600061180f565b565b6000818152600e60205260409020546001600160a01b031680610cb35760405162461bcd60e51b815260206004820152600f60248201526e125b9d9b1a5859081cdb1bdd081a59608a1b60448201526064016105d9565b610cbc83610b62565b6001600160a01b0316336001600160a01b031614610cec5760405162461bcd60e51b81526004016105d990612af6565b600083815260126020908152604080832085845290915290205460ff16610d475760405162461bcd60e51b815260206004820152600f60248201526e14db1bdd081b9bdd08199a5b1b1959608a1b60448201526064016105d9565b610d50826109f6565b15610e325760008381526010602090815260408083208584528252808320548684526011835281842086855290925291829020549151637921219560e11b81526001600160a01b0384169263f242432a92610db2923092339291600401612b1f565b600060405180830381600087803b158015610dcc57600080fd5b505af1158015610de0573d6000803e3d6000fd5b50505060008481526012602090815260408083208684528252808320805460ff191690558683526011825280832086845282528083208390559582526010815285822094825293909352505090812055565b610e3b82611125565b1561067a57600083815260106020908152604080832085845290915290819020549051632142170760e11b815230600482015233602482015260448101919091526001600160a01b038216906342842e0e90606401610db2565b6060600180546104bb90612a2a565b610eaf338383611861565b5050565b600d6020528160005260406000208181548110610ecf57600080fd5b90600052602060002001600091509150505481565b600f5460609060009067ffffffffffffffff811115610f0557610f05612520565b604051908082528060200260200182016040528015610f7357816020015b610f606040518060a001604052806000815260200160006001600160a01b0316815260200160008152602001600081526020016000151581525090565b815260200190600190039081610f235790505b5090506000805b600f548110156110e457600f8181548110610f9757610f97612a64565b9060005260206000200154915081838281518110610fb757610fb7612a64565b602090810291909101810151919091526000838152600e909152604090205483516001600160a01b0390911690849083908110610ff657610ff6612a64565b6020908102919091018101516001600160a01b039092169181019190915260008681526010825260408082208583529092522054835184908390811061103e5761103e612a64565b6020908102919091018101516040908101929092526000878152601182528281208582529091522054835184908390811061107b5761107b612a64565b6020908102919091018101516060019190915260008681526012825260408082208583529092522054835160ff909116908490839081106110be576110be612a64565b6020908102919091010151901515608090910152806110dc81612a90565b915050610f7a565b50909392505050565b6110f7338361139a565b6111135760405162461bcd60e51b81526004016105d990612aa9565b61111f8484848461192f565b50505050565b6000818152600e60205260408120546104a6906001600160a01b03166380ac58cd60e01b61158a565b60606104a682611962565b611161611340565b600061116c600c5490565b905061117c600c80546001019055565b6111868382611a6a565b61067a8183611a84565b61119984610b62565b6001600160a01b0316336001600160a01b0316146111c95760405162461bcd60e51b81526004016105d990612af6565b61111f848484846115ad565b6111dd611340565b6001600160a01b0381166112425760405162461bcd60e51b815260206004820152602660248201527f4f776e61626c653a206e6577206f776e657220697320746865207a65726f206160448201526564647265737360d01b60648201526084016105d9565b61124b8161180f565b50565b60006001600160e01b0319821663780e9d6360e01b14806104a657506104a682611b17565b6000818152600260205260409020546001600160a01b031661124b5760405162461bcd60e51b8152602060048201526018602482015277115490cdcc8c4e881a5b9d985b1a59081d1bdad95b88125160421b60448201526064016105d9565b600081815260046020526040902080546001600160a01b0319166001600160a01b038416908117909155819061130782610b62565b6001600160a01b03167f8c5be1e5ebec7d5bd14f71427d1e84f3dd0314c0f7b2291e5b200ac8c7c3b92560405160405180910390a45050565b600b546001600160a01b03163314610c5a5760405162461bcd60e51b815260206004820181905260248201527f4f776e61626c653a2063616c6c6572206973206e6f7420746865206f776e657260448201526064016105d9565b6000806113a683610b62565b9050806001600160a01b0316846001600160a01b031614806113ed57506001600160a01b0380821660009081526005602090815260408083209388168352929052205460ff165b806114115750836001600160a01b03166114068461053e565b6001600160a01b0316145b949350505050565b826001600160a01b031661142c82610b62565b6001600160a01b0316146114525760405162461bcd60e51b81526004016105d990612b57565b6001600160a01b0382166114b45760405162461bcd60e51b8152602060048201526024808201527f4552433732313a207472616e7366657220746f20746865207a65726f206164646044820152637265737360e01b60648201526084016105d9565b6114c18383836001611b67565b826001600160a01b03166114d482610b62565b6001600160a01b0316146114fa5760405162461bcd60e51b81526004016105d990612b57565b600081815260046020908152604080832080546001600160a01b03199081169091556001600160a01b0387811680865260038552838620805460001901905590871680865283862080546001019055868652600290945282852080549092168417909155905184937fddf252ad1be2c89b69c2b068fc378daa952ba7f163c4a11628f55a4df523b3ef91a4505050565b600061159583611b73565b80156115a657506115a68383611ba6565b9392505050565b6000838152600e60205260409020546001600160a01b0316806116045760405162461bcd60e51b815260206004820152600f60248201526e125b9d9b1a5859081cdb1bdd081a59608a1b60448201526064016105d9565b600085815260126020908152604080832087845290915290205460ff16156116635760405162461bcd60e51b8152602060048201526012602482015271536c6f74206e6f7420617661696c61626c6560701b60448201526064016105d9565b61166c846109f6565b1561174457604051637921219560e11b81526001600160a01b0382169063f242432a906116a3903390309088908890600401612b1f565b600060405180830381600087803b1580156116bd57600080fd5b505af11580156116d1573d6000803e3d6000fd5b505050600086815260106020908152604080832088845282528083208790558883526011825280832088845290915281208054859350909190611715908490612b9c565b90915550505060008481526012602090815260408083208684529091529020805460ff1916600117905561111f565b61174d84611125565b15610b5b57604051632142170760e11b8152336004820152306024820152604481018490526001600160a01b038216906342842e0e90606401600060405180830381600087803b1580156117a057600080fd5b505af11580156117b4573d6000803e3d6000fd5b505050600086815260106020908152604080832088845282528083209690965587825260118152858220878352815285822060019081905597825260128152858220968252959095525050509020805460ff19169091179055565b600b80546001600160a01b038381166001600160a01b0319831681179093556040519116919082907f8be0079c531659141344cd1fd0a4f28419497f9722a3daafe3b4186f6b6457e090600090a35050565b816001600160a01b0316836001600160a01b0316036118c25760405162461bcd60e51b815260206004820152601960248201527f4552433732313a20617070726f766520746f2063616c6c65720000000000000060448201526064016105d9565b6001600160a01b03838116600081815260056020908152604080832094871680845294825291829020805460ff191686151590811790915591519182527f17307eab39ab6107e8899845ad3d59bd9653f200f220920489ca2b5937696c31910160405180910390a3505050565b61193a848484611419565b61194684848484611c2f565b61111f5760405162461bcd60e51b81526004016105d990612baf565b606061196d82611273565b6000828152600a60205260408120805461198690612a2a565b80601f01602080910402602001604051908101604052809291908181526020018280546119b290612a2a565b80156119ff5780601f106119d4576101008083540402835291602001916119ff565b820191906000526020600020905b8154815290600101906020018083116119e257829003601f168201915b505050505090506000611a1d60408051602081019091526000815290565b90508051600003611a2f575092915050565b815115611a61578082604051602001611a49929190612c01565b60405160208183030381529060405292505050919050565b61141184611d30565b610eaf828260405180602001604052806000815250611da3565b6000828152600260205260409020546001600160a01b0316611aff5760405162461bcd60e51b815260206004820152602e60248201527f45524337323155524953746f726167653a2055524920736574206f66206e6f6e60448201526d32bc34b9ba32b73a103a37b5b2b760911b60648201526084016105d9565b6000828152600a6020526040902061067a8282612c7e565b60006001600160e01b031982166380ac58cd60e01b1480611b4857506001600160e01b03198216635b5e139f60e01b145b806104a657506301ffc9a760e01b6001600160e01b03198316146104a6565b61111f84848484611dd6565b6000611b86826301ffc9a760e01b611ba6565b80156104a65750611b9f826001600160e01b0319611ba6565b1592915050565b604080516001600160e01b03198316602480830191909152825180830390910181526044909101909152602080820180516001600160e01b03166301ffc9a760e01b178152825160009392849283928392918391908a617530fa92503d91506000519050828015611c18575060208210155b8015611c245750600081115b979650505050505050565b60006001600160a01b0384163b15611d2557604051630a85bd0160e11b81526001600160a01b0385169063150b7a0290611c73903390899088908890600401612d3e565b6020604051808303816000875af1925050508015611cae575060408051601f3d908101601f19168201909252611cab91810190612d7b565b60015b611d0b573d808015611cdc576040519150601f19603f3d011682016040523d82523d6000602084013e611ce1565b606091505b508051600003611d035760405162461bcd60e51b81526004016105d990612baf565b805181602001fd5b6001600160e01b031916630a85bd0160e11b149050611411565b506001949350505050565b6060611d3b82611273565b6000611d5260408051602081019091526000815290565b90506000815111611d7257604051806020016040528060008152506115a6565b80611d7c84611f0f565b604051602001611d8d929190612c01565b6040516020818303038152906040529392505050565b611dad8383611fa2565b611dba6000848484611c2f565b61067a5760405162461bcd60e51b81526004016105d990612baf565b611de28484848461213b565b6001811115611e515760405162461bcd60e51b815260206004820152603560248201527f455243373231456e756d657261626c653a20636f6e7365637574697665207472604482015274185b9cd9995c9cc81b9bdd081cdd5c1c1bdc9d1959605a1b60648201526084016105d9565b816001600160a01b038516611ead57611ea881600880546000838152600960205260408120829055600182018355919091527ff3f7a9fe364faab93b216da50a3214154f22a0a2b415b23a84c8169e8b636ee30155565b611ed0565b836001600160a01b0316856001600160a01b031614611ed057611ed085826121c3565b6001600160a01b038416611eec57611ee781612260565b610b5b565b846001600160a01b0316846001600160a01b031614610b5b57610b5b848261230f565b60606000611f1c83612353565b600101905060008167ffffffffffffffff811115611f3c57611f3c612520565b6040519080825280601f01601f191660200182016040528015611f66576020820181803683370190505b5090508181016020015b600019016f181899199a1a9b1b9c1cb0b131b232b360811b600a86061a8153600a8504945084611f7057509392505050565b6001600160a01b038216611ff85760405162461bcd60e51b815260206004820181905260248201527f4552433732313a206d696e7420746f20746865207a65726f206164647265737360448201526064016105d9565b6000818152600260205260409020546001600160a01b03161561205d5760405162461bcd60e51b815260206004820152601c60248201527f4552433732313a20746f6b656e20616c7265616479206d696e7465640000000060448201526064016105d9565b61206b600083836001611b67565b6000818152600260205260409020546001600160a01b0316156120d05760405162461bcd60e51b815260206004820152601c60248201527f4552433732313a20746f6b656e20616c7265616479206d696e7465640000000060448201526064016105d9565b6001600160a01b038216600081815260036020908152604080832080546001019055848352600290915280822080546001600160a01b0319168417905551839291907fddf252ad1be2c89b69c2b068fc378daa952ba7f163c4a11628f55a4df523b3ef908290a45050565b600181111561111f576001600160a01b03841615612181576001600160a01b0384166000908152600360205260408120805483929061217b908490612d98565b90915550505b6001600160a01b0383161561111f576001600160a01b038316600090815260036020526040812080548392906121b8908490612b9c565b909155505050505050565b600060016121d084610bc2565b6121da9190612d98565b60008381526007602052604090205490915080821461222d576001600160a01b03841660009081526006602090815260408083208584528252808320548484528184208190558352600790915290208190555b5060009182526007602090815260408084208490556001600160a01b039094168352600681528383209183525290812055565b60085460009061227290600190612d98565b6000838152600960205260408120546008805493945090928490811061229a5761229a612a64565b9060005260206000200154905080600883815481106122bb576122bb612a64565b60009182526020808320909101929092558281526009909152604080822084905585825281205560088054806122f3576122f3612dab565b6001900381819060005260206000200160009055905550505050565b600061231a83610bc2565b6001600160a01b039093166000908152600660209081526040808320868452825280832085905593825260079052919091209190915550565b60008072184f03e93ff9f4daa797ed6e38ed64bf6a1f0160401b83106123925772184f03e93ff9f4daa797ed6e38ed64bf6a1f0160401b830492506040015b6d04ee2d6d415b85acef810000000083106123be576d04ee2d6d415b85acef8100000000830492506020015b662386f26fc1000083106123dc57662386f26fc10000830492506010015b6305f5e10083106123f4576305f5e100830492506008015b612710831061240857612710830492506004015b6064831061241a576064830492506002015b600a83106104a65760010192915050565b6001600160e01b03198116811461124b57600080fd5b60006020828403121561245357600080fd5b81356115a68161242b565b60005b83811015612479578181015183820152602001612461565b50506000910152565b6000815180845261249a81602086016020860161245e565b601f01601f19169290920160200192915050565b6020815260006115a66020830184612482565b6000602082840312156124d357600080fd5b5035919050565b80356001600160a01b03811681146124f157600080fd5b919050565b6000806040838503121561250957600080fd5b612512836124da565b946020939093013593505050565b634e487b7160e01b600052604160045260246000fd5b604051601f8201601f1916810167ffffffffffffffff8111828210171561255f5761255f612520565b604052919050565b600067ffffffffffffffff82111561258157612581612520565b5060051b60200190565b600082601f83011261259c57600080fd5b813560206125b16125ac83612567565b612536565b82815260059290921b840181019181810190868411156125d057600080fd5b8286015b848110156125eb57803583529183019183016125d4565b509695505050505050565b6000806040838503121561260957600080fd5b823567ffffffffffffffff8082111561262157600080fd5b61262d8683870161258b565b935060209150818501358181111561264457600080fd5b85019050601f8101861361265757600080fd5b80356126656125ac82612567565b81815260059190911b8201830190838101908883111561268457600080fd5b928401925b828410156126a95761269a846124da565b82529284019290840190612689565b80955050505050509250929050565b6000806000606084860312156126cd57600080fd5b6126d6846124da565b92506126e4602085016124da565b9150604084013590509250925092565b6000806040838503121561270757600080fd5b82359150612717602084016124da565b90509250929050565b6000806000806080858703121561273657600080fd5b84359350602085013567ffffffffffffffff8082111561275557600080fd5b6127618883890161258b565b9450604087013591508082111561277757600080fd5b6127838883890161258b565b9350606087013591508082111561279957600080fd5b506127a68782880161258b565b91505092959194509250565b6000602082840312156127c457600080fd5b6115a6826124da565b600080604083850312156127e057600080fd5b50508035926020909101359150565b6000806040838503121561280257600080fd5b61280b836124da565b91506020830135801515811461282057600080fd5b809150509250929050565b602080825282518282018190526000919060409081850190868401855b8281101561289757815180518552868101516001600160a01b03168786015285810151868601526060808201519086015260809081015115159085015260a09093019290850190600101612848565b5091979650505050505050565b600067ffffffffffffffff8311156128be576128be612520565b6128d1601f8401601f1916602001612536565b90508281528383830111156128e557600080fd5b828260208301376000602084830101529392505050565b6000806000806080858703121561291257600080fd5b61291b856124da565b9350612929602086016124da565b925060408501359150606085013567ffffffffffffffff81111561294c57600080fd5b8501601f8101871361295d57600080fd5b6127a6878235602084016128a4565b6000806040838503121561297f57600080fd5b612988836124da565b9150602083013567ffffffffffffffff8111156129a457600080fd5b8301601f810185136129b557600080fd5b6129c4858235602084016128a4565b9150509250929050565b600080600080608085870312156129e457600080fd5b5050823594602084013594506040840135936060013592509050565b60008060408385031215612a1357600080fd5b612a1c836124da565b9150612717602084016124da565b600181811c90821680612a3e57607f821691505b602082108103612a5e57634e487b7160e01b600052602260045260246000fd5b50919050565b634e487b7160e01b600052603260045260246000fd5b634e487b7160e01b600052601160045260246000fd5b600060018201612aa257612aa2612a7a565b5060010190565b6020808252602d908201527f4552433732313a2063616c6c6572206973206e6f7420746f6b656e206f776e6560408201526c1c881bdc88185c1c1c9bdd9959609a1b606082015260800190565b6020808252600f908201526e2737ba103a37b5b2b71037bbb732b960891b604082015260600190565b6001600160a01b0394851681529290931660208301526040820152606081019190915260a06080820181905260009082015260c00190565b60208082526025908201527f4552433732313a207472616e736665722066726f6d20696e636f72726563742060408201526437bbb732b960d91b606082015260800190565b808201808211156104a6576104a6612a7a565b60208082526032908201527f4552433732313a207472616e7366657220746f206e6f6e20455243373231526560408201527131b2b4bb32b91034b6b83632b6b2b73a32b960711b606082015260800190565b60008351612c1381846020880161245e565b835190830190612c2781836020880161245e565b01949350505050565b601f82111561067a57600081815260208120601f850160051c81016020861015612c575750805b601f850160051c820191505b81811015612c7657828155600101612c63565b505050505050565b815167ffffffffffffffff811115612c9857612c98612520565b612cac81612ca68454612a2a565b84612c30565b602080601f831160018114612ce15760008415612cc95750858301515b600019600386901b1c1916600185901b178555612c76565b600085815260208120601f198616915b82811015612d1057888601518255948401946001909101908401612cf1565b5085821015612d2e5787850151600019600388901b60f8161c191681555b5050505050600190811b01905550565b6001600160a01b0385811682528416602082015260408101839052608060608201819052600090612d7190830184612482565b9695505050505050565b600060208284031215612d8d57600080fd5b81516115a68161242b565b818103818111156104a6576104a6612a7a565b634e487b7160e01b600052603160045260246000fdfea26469706673582212200c48224e2db84921a81a8e3d0d4ba53cfd7c3417e9bd7422ceabacf057eb4c8164736f6c63430008110033",
  "devdoc": {
    "kind": "dev",
    "methods": {
      "approve(address,uint256)": {
        "details": "See {IERC721-approve}."
      },
      "balanceOf(address)": {
        "details": "See {IERC721-balanceOf}."
      },
      "getApproved(uint256)": {
        "details": "See {IERC721-getApproved}."
      },
      "isApprovedForAll(address,address)": {
        "details": "See {IERC721-isApprovedForAll}."
      },
      "name()": {
        "details": "See {IERC721Metadata-name}."
      },
      "owner()": {
        "details": "Returns the address of the current owner."
      },
      "ownerOf(uint256)": {
        "details": "See {IERC721-ownerOf}."
      },
      "renounceOwnership()": {
        "details": "Leaves the contract without owner. It will not be possible to call `onlyOwner` functions anymore. Can only be called by the current owner. NOTE: Renouncing ownership will leave the contract without an owner, thereby removing any functionality that is only available to the owner."
      },
      "safeTransferFrom(address,address,uint256)": {
        "details": "See {IERC721-safeTransferFrom}."
      },
      "safeTransferFrom(address,address,uint256,bytes)": {
        "details": "See {IERC721-safeTransferFrom}."
      },
      "setApprovalForAll(address,bool)": {
        "details": "See {IERC721-setApprovalForAll}."
      },
      "symbol()": {
        "details": "See {IERC721Metadata-symbol}."
      },
      "tokenByIndex(uint256)": {
        "details": "See {IERC721Enumerable-tokenByIndex}."
      },
      "tokenOfOwnerByIndex(address,uint256)": {
        "details": "See {IERC721Enumerable-tokenOfOwnerByIndex}."
      },
      "totalSupply()": {
        "details": "See {IERC721Enumerable-totalSupply}."
      },
      "transferFrom(address,address,uint256)": {
        "details": "See {IERC721-transferFrom}."
      },
      "transferOwnership(address)": {
        "details": "Transfers ownership of the contract to a new account (`newOwner`). Can only be called by the current owner."
      }
    },
    "version": 1
  },
  "userdoc": {
    "kind": "user",
    "methods": {},
    "version": 1
  },
  "storageLayout": {
    "storage": [
      {
        "astId": 1702,
        "contract": "contracts/ComposableNFT.sol:ComposableNFT",
        "label": "_name",
        "offset": 0,
        "slot": "0",
        "type": "t_string_storage"
      },
      {
        "astId": 1704,
        "contract": "contracts/ComposableNFT.sol:ComposableNFT",
        "label": "_symbol",
        "offset": 0,
        "slot": "1",
        "type": "t_string_storage"
      },
      {
        "astId": 1708,
        "contract": "contracts/ComposableNFT.sol:ComposableNFT",
        "label": "_owners",
        "offset": 0,
        "slot": "2",
        "type": "t_mapping(t_uint256,t_address)"
      },
      {
        "astId": 1712,
        "contract": "contracts/ComposableNFT.sol:ComposableNFT",
        "label": "_balances",
        "offset": 0,
        "slot": "3",
        "type": "t_mapping(t_address,t_uint256)"
      },
      {
        "astId": 1716,
        "contract": "contracts/ComposableNFT.sol:ComposableNFT",
        "label": "_tokenApprovals",
        "offset": 0,
        "slot": "4",
        "type": "t_mapping(t_uint256,t_address)"
      },
      {
        "astId": 1722,
        "contract": "contracts/ComposableNFT.sol:ComposableNFT",
        "label": "_operatorApprovals",
        "offset": 0,
        "slot": "5",
        "type": "t_mapping(t_address,t_mapping(t_address,t_bool))"
      },
      {
        "astId": 2770,
        "contract": "contracts/ComposableNFT.sol:ComposableNFT",
        "label": "_ownedTokens",
        "offset": 0,
        "slot": "6",
        "type": "t_mapping(t_address,t_mapping(t_uint256,t_uint256))"
      },
      {
        "astId": 2774,
        "contract": "contracts/ComposableNFT.sol:ComposableNFT",
        "label": "_ownedTokensIndex",
        "offset": 0,
        "slot": "7",
        "type": "t_mapping(t_uint256,t_uint256)"
      },
      {
        "astId": 2777,
        "contract": "contracts/ComposableNFT.sol:ComposableNFT",
        "label": "_allTokens",
        "offset": 0,
        "slot": "8",
        "type": "t_array(t_uint256)dyn_storage"
      },
      {
        "astId": 2781,
        "contract": "contracts/ComposableNFT.sol:ComposableNFT",
        "label": "_allTokensIndex",
        "offset": 0,
        "slot": "9",
        "type": "t_mapping(t_uint256,t_uint256)"
      },
      {
        "astId": 3122,
        "contract": "contracts/ComposableNFT.sol:ComposableNFT",
        "label": "_tokenURIs",
        "offset": 0,
        "slot": "10",
        "type": "t_mapping(t_uint256,t_string_storage)"
      },
      {
        "astId": 7,
        "contract": "contracts/ComposableNFT.sol:ComposableNFT",
        "label": "_owner",
        "offset": 0,
        "slot": "11",
        "type": "t_address"
      },
      {
        "astId": 5786,
        "contract": "contracts/ComposableNFT.sol:ComposableNFT",
        "label": "_tokenIdCounter",
        "offset": 0,
        "slot": "12",
        "type": "t_struct(Counter)3650_storage"
      },
      {
        "astId": 5013,
        "contract": "contracts/ComposableNFT.sol:ComposableNFT",
        "label": "assetSlots",
        "offset": 0,
        "slot": "13",
        "type": "t_mapping(t_address,t_array(t_uint256)dyn_storage)"
      },
      {
        "astId": 5017,
        "contract": "contracts/ComposableNFT.sol:ComposableNFT",
        "label": "slotAsset",
        "offset": 0,
        "slot": "14",
        "type": "t_mapping(t_uint256,t_address)"
      },
      {
        "astId": 5020,
        "contract": "contracts/ComposableNFT.sol:ComposableNFT",
        "label": "slots",
        "offset": 0,
        "slot": "15",
        "type": "t_array(t_uint256)dyn_storage"
      },
      {
        "astId": 5026,
        "contract": "contracts/ComposableNFT.sol:ComposableNFT",
        "label": "tokenSlotsData",
        "offset": 0,
        "slot": "16",
        "type": "t_mapping(t_uint256,t_mapping(t_uint256,t_uint256))"
      },
      {
        "astId": 5032,
        "contract": "contracts/ComposableNFT.sol:ComposableNFT",
        "label": "tokenSlotsBalance",
        "offset": 0,
        "slot": "17",
        "type": "t_mapping(t_uint256,t_mapping(t_uint256,t_uint256))"
      },
      {
        "astId": 5038,
        "contract": "contracts/ComposableNFT.sol:ComposableNFT",
        "label": "tokenSlotsFilled",
        "offset": 0,
        "slot": "18",
        "type": "t_mapping(t_uint256,t_mapping(t_uint256,t_bool))"
      }
    ],
    "types": {
      "t_address": {
        "encoding": "inplace",
        "label": "address",
        "numberOfBytes": "20"
      },
      "t_array(t_uint256)dyn_storage": {
        "base": "t_uint256",
        "encoding": "dynamic_array",
        "label": "uint256[]",
        "numberOfBytes": "32"
      },
      "t_bool": {
        "encoding": "inplace",
        "label": "bool",
        "numberOfBytes": "1"
      },
      "t_mapping(t_address,t_array(t_uint256)dyn_storage)": {
        "encoding": "mapping",
        "key": "t_address",
        "label": "mapping(address => uint256[])",
        "numberOfBytes": "32",
        "value": "t_array(t_uint256)dyn_storage"
      },
      "t_mapping(t_address,t_bool)": {
        "encoding": "mapping",
        "key": "t_address",
        "label": "mapping(address => bool)",
        "numberOfBytes": "32",
        "value": "t_bool"
      },
      "t_mapping(t_address,t_mapping(t_address,t_bool))": {
        "encoding": "mapping",
        "key": "t_address",
        "label": "mapping(address => mapping(address => bool))",
        "numberOfBytes": "32",
        "value": "t_mapping(t_address,t_bool)"
      },
      "t_mapping(t_address,t_mapping(t_uint256,t_uint256))": {
        "encoding": "mapping",
        "key": "t_address",
        "label": "mapping(address => mapping(uint256 => uint256))",
        "numberOfBytes": "32",
        "value": "t_mapping(t_uint256,t_uint256)"
      },
      "t_mapping(t_address,t_uint256)": {
        "encoding": "mapping",
        "key": "t_address",
        "label": "mapping(address => uint256)",
        "numberOfBytes": "32",
        "value": "t_uint256"
      },
      "t_mapping(t_uint256,t_address)": {
        "encoding": "mapping",
        "key": "t_uint256",
        "label": "mapping(uint256 => address)",
        "numberOfBytes": "32",
        "value": "t_address"
      },
      "t_mapping(t_uint256,t_bool)": {
        "encoding": "mapping",
        "key": "t_uint256",
        "label": "mapping(uint256 => bool)",
        "numberOfBytes": "32",
        "value": "t_bool"
      },
      "t_mapping(t_uint256,t_mapping(t_uint256,t_bool))": {
        "encoding": "mapping",
        "key": "t_uint256",
        "label": "mapping(uint256 => mapping(uint256 => bool))",
        "numberOfBytes": "32",
        "value": "t_mapping(t_uint256,t_bool)"
      },
      "t_mapping(t_uint256,t_mapping(t_uint256,t_uint256))": {
        "encoding": "mapping",
        "key": "t_uint256",
        "label": "mapping(uint256 => mapping(uint256 => uint256))",
        "numberOfBytes": "32",
        "value": "t_mapping(t_uint256,t_uint256)"
      },
      "t_mapping(t_uint256,t_string_storage)": {
        "encoding": "mapping",
        "key": "t_uint256",
        "label": "mapping(uint256 => string)",
        "numberOfBytes": "32",
        "value": "t_string_storage"
      },
      "t_mapping(t_uint256,t_uint256)": {
        "encoding": "mapping",
        "key": "t_uint256",
        "label": "mapping(uint256 => uint256)",
        "numberOfBytes": "32",
        "value": "t_uint256"
      },
      "t_string_storage": {
        "encoding": "bytes",
        "label": "string",
        "numberOfBytes": "32"
      },
      "t_struct(Counter)3650_storage": {
        "encoding": "inplace",
        "label": "struct Counters.Counter",
        "members": [
          {
            "astId": 3649,
            "contract": "contracts/ComposableNFT.sol:ComposableNFT",
            "label": "_value",
            "offset": 0,
            "slot": "0",
            "type": "t_uint256"
          }
        ],
        "numberOfBytes": "32"
      },
      "t_uint256": {
        "encoding": "inplace",
        "label": "uint256",
        "numberOfBytes": "32"
      }
    }
  }
}