{
  "address": "0xDFB5596A1DAf0349a775941faf23c646463f5ac2",
  "abi": [
    {
      "inputs": [
        {
          "internalType": "string",
          "name": "name",
          "type": "string"
        },
        {
          "internalType": "string",
          "name": "symbol",
          "type": "string"
        }
      ],
      "stateMutability": "nonpayable",
      "type": "constructor"
    },
    {
      "anonymous": false,
      "inputs": [
        {
          "indexed": true,
          "internalType": "address",
          "name": "owner",
          "type": "address"
        },
        {
          "indexed": true,
          "internalType": "address",
          "name": "approved",
          "type": "address"
        },
        {
          "indexed": true,
          "internalType": "uint256",
          "name": "tokenId",
          "type": "uint256"
        }
      ],
      "name": "Approval",
      "type": "event"
    },
    {
      "anonymous": false,
      "inputs": [
        {
          "indexed": true,
          "internalType": "address",
          "name": "owner",
          "type": "address"
        },
        {
          "indexed": true,
          "internalType": "address",
          "name": "operator",
          "type": "address"
        },
        {
          "indexed": false,
          "internalType": "bool",
          "name": "approved",
          "type": "bool"
        }
      ],
      "name": "ApprovalForAll",
      "type": "event"
    },
    {
      "anonymous": false,
      "inputs": [
        {
          "indexed": false,
          "internalType": "uint256",
          "name": "tokenId",
          "type": "uint256"
        },
        {
          "indexed": false,
          "internalType": "uint256",
          "name": "slotId",
          "type": "uint256"
        },
        {
          "indexed": false,
          "internalType": "uint256",
          "name": "slotAssetTokenId",
          "type": "uint256"
        },
        {
          "indexed": false,
          "internalType": "uint256",
          "name": "slotAssetAmount",
          "type": "uint256"
        }
      ],
      "name": "AttachSlotAsset",
      "type": "event"
    },
    {
      "anonymous": false,
      "inputs": [
        {
          "indexed": false,
          "internalType": "uint256",
          "name": "tokenId",
          "type": "uint256"
        },
        {
          "indexed": false,
          "internalType": "uint256",
          "name": "slotId",
          "type": "uint256"
        },
        {
          "indexed": false,
          "internalType": "uint256",
          "name": "slotAssetTokenId",
          "type": "uint256"
        },
        {
          "indexed": false,
          "internalType": "uint256",
          "name": "slotAssetAmount",
          "type": "uint256"
        }
      ],
      "name": "DetachSlotAsset",
      "type": "event"
    },
    {
      "anonymous": false,
      "inputs": [
        {
          "indexed": false,
          "internalType": "uint256",
          "name": "slotId",
          "type": "uint256"
        },
        {
          "indexed": false,
          "internalType": "address",
          "name": "assetTokenAddress",
          "type": "address"
        }
      ],
      "name": "NewSlot",
      "type": "event"
    },
    {
      "anonymous": false,
      "inputs": [
        {
          "indexed": true,
          "internalType": "address",
          "name": "previousOwner",
          "type": "address"
        },
        {
          "indexed": true,
          "internalType": "address",
          "name": "newOwner",
          "type": "address"
        }
      ],
      "name": "OwnershipTransferred",
      "type": "event"
    },
    {
      "anonymous": false,
      "inputs": [
        {
          "indexed": true,
          "internalType": "address",
          "name": "from",
          "type": "address"
        },
        {
          "indexed": true,
          "internalType": "address",
          "name": "to",
          "type": "address"
        },
        {
          "indexed": true,
          "internalType": "uint256",
          "name": "tokenId",
          "type": "uint256"
        }
      ],
      "name": "Transfer",
      "type": "event"
    },
    {
      "inputs": [
        {
          "internalType": "address",
          "name": "to",
          "type": "address"
        },
        {
          "internalType": "uint256",
          "name": "tokenId",
          "type": "uint256"
        }
      ],
      "name": "approve",
      "outputs": [],
      "stateMutability": "nonpayable",
      "type": "function"
    },
    {
      "inputs": [
        {
          "internalType": "address",
          "name": "",
          "type": "address"
        },
        {
          "internalType": "uint256",
          "name": "",
          "type": "uint256"
        }
      ],
      "name": "assetSlots",
      "outputs": [
        {
          "internalType": "uint256",
          "name": "",
          "type": "uint256"
        }
      ],
      "stateMutability": "view",
      "type": "function"
    },
    {
      "inputs": [
        {
          "internalType": "uint256",
          "name": "tokenId",
          "type": "uint256"
        },
        {
          "internalType": "uint256",
          "name": "slotId",
          "type": "uint256"
        },
        {
          "internalType": "uint256",
          "name": "slotAssetTokenId",
          "type": "uint256"
        },
        {
          "internalType": "uint256",
          "name": "amount",
          "type": "uint256"
        }
      ],
      "name": "attach",
      "outputs": [],
      "stateMutability": "nonpayable",
      "type": "function"
    },
    {
      "inputs": [
        {
          "internalType": "uint256",
          "name": "tokenId",
          "type": "uint256"
        },
        {
          "internalType": "uint256[]",
          "name": "slotIds",
          "type": "uint256[]"
        },
        {
          "internalType": "uint256[]",
          "name": "slotAssetTokenIds",
          "type": "uint256[]"
        },
        {
          "internalType": "uint256[]",
          "name": "amount",
          "type": "uint256[]"
        }
      ],
      "name": "attachBatch",
      "outputs": [],
      "stateMutability": "nonpayable",
      "type": "function"
    },
    {
      "inputs": [
        {
          "internalType": "address",
          "name": "owner",
          "type": "address"
        }
      ],
      "name": "balanceOf",
      "outputs": [
        {
          "internalType": "uint256",
          "name": "",
          "type": "uint256"
        }
      ],
      "stateMutability": "view",
      "type": "function"
    },
    {
      "inputs": [
        {
          "internalType": "uint256",
          "name": "slotId",
          "type": "uint256"
        },
        {
          "internalType": "address",
          "name": "assetTokenAddress",
          "type": "address"
        }
      ],
      "name": "configureSlot",
      "outputs": [],
      "stateMutability": "nonpayable",
      "type": "function"
    },
    {
      "inputs": [
        {
          "internalType": "uint256[]",
          "name": "slotIds",
          "type": "uint256[]"
        },
        {
          "internalType": "address[]",
          "name": "assetTokenAddresses",
          "type": "address[]"
        }
      ],
      "name": "configureSlots",
      "outputs": [],
      "stateMutability": "nonpayable",
      "type": "function"
    },
    {
      "inputs": [
        {
          "internalType": "uint256",
          "name": "tokenId",
          "type": "uint256"
        },
        {
          "internalType": "uint256",
          "name": "slotId",
          "type": "uint256"
        }
      ],
      "name": "detach",
      "outputs": [],
      "stateMutability": "nonpayable",
      "type": "function"
    },
    {
      "inputs": [
        {
          "internalType": "uint256",
          "name": "tokenId",
          "type": "uint256"
        }
      ],
      "name": "getApproved",
      "outputs": [
        {
          "internalType": "address",
          "name": "",
          "type": "address"
        }
      ],
      "stateMutability": "view",
      "type": "function"
    },
    {
      "inputs": [
        {
          "internalType": "uint256",
          "name": "tokenId",
          "type": "uint256"
        }
      ],
      "name": "getTokenSlotsInfo",
      "outputs": [
        {
          "components": [
            {
              "internalType": "uint256",
              "name": "slotId",
              "type": "uint256"
            },
            {
              "internalType": "address",
              "name": "slotAssetAddress",
              "type": "address"
            },
            {
              "internalType": "uint256",
              "name": "slotAssetTokenId",
              "type": "uint256"
            },
            {
              "internalType": "uint256",
              "name": "slotAssetTokenAmount",
              "type": "uint256"
            },
            {
              "internalType": "bool",
              "name": "slotFilled",
              "type": "bool"
            }
          ],
          "internalType": "struct ComposableNFT.SlotInfo[]",
          "name": "",
          "type": "tuple[]"
        }
      ],
      "stateMutability": "view",
      "type": "function"
    },
    {
      "inputs": [
        {
          "internalType": "uint256",
          "name": "slotId",
          "type": "uint256"
        }
      ],
      "name": "is1155AssetSlot",
      "outputs": [
        {
          "internalType": "bool",
          "name": "",
          "type": "bool"
        }
      ],
      "stateMutability": "view",
      "type": "function"
    },
    {
      "inputs": [
        {
          "internalType": "uint256",
          "name": "slotId",
          "type": "uint256"
        }
      ],
      "name": "is721AssetSlot",
      "outputs": [
        {
          "internalType": "bool",
          "name": "",
          "type": "bool"
        }
      ],
      "stateMutability": "view",
      "type": "function"
    },
    {
      "inputs": [
        {
          "internalType": "address",
          "name": "owner",
          "type": "address"
        },
        {
          "internalType": "address",
          "name": "operator",
          "type": "address"
        }
      ],
      "name": "isApprovedForAll",
      "outputs": [
        {
          "internalType": "bool",
          "name": "",
          "type": "bool"
        }
      ],
      "stateMutability": "view",
      "type": "function"
    },
    {
      "inputs": [
        {
          "internalType": "address",
          "name": "to",
          "type": "address"
        },
        {
          "internalType": "string",
          "name": "uri",
          "type": "string"
        }
      ],
      "name": "mint",
      "outputs": [],
      "stateMutability": "nonpayable",
      "type": "function"
    },
    {
      "inputs": [],
      "name": "name",
      "outputs": [
        {
          "internalType": "string",
          "name": "",
          "type": "string"
        }
      ],
      "stateMutability": "view",
      "type": "function"
    },
    {
      "inputs": [],
      "name": "owner",
      "outputs": [
        {
          "internalType": "address",
          "name": "",
          "type": "address"
        }
      ],
      "stateMutability": "view",
      "type": "function"
    },
    {
      "inputs": [
        {
          "internalType": "uint256",
          "name": "tokenId",
          "type": "uint256"
        }
      ],
      "name": "ownerOf",
      "outputs": [
        {
          "internalType": "address",
          "name": "",
          "type": "address"
        }
      ],
      "stateMutability": "view",
      "type": "function"
    },
    {
      "inputs": [],
      "name": "renounceOwnership",
      "outputs": [],
      "stateMutability": "nonpayable",
      "type": "function"
    },
    {
      "inputs": [
        {
          "internalType": "address",
          "name": "from",
          "type": "address"
        },
        {
          "internalType": "address",
          "name": "to",
          "type": "address"
        },
        {
          "internalType": "uint256",
          "name": "tokenId",
          "type": "uint256"
        }
      ],
      "name": "safeTransferFrom",
      "outputs": [],
      "stateMutability": "nonpayable",
      "type": "function"
    },
    {
      "inputs": [
        {
          "internalType": "address",
          "name": "from",
          "type": "address"
        },
        {
          "internalType": "address",
          "name": "to",
          "type": "address"
        },
        {
          "internalType": "uint256",
          "name": "tokenId",
          "type": "uint256"
        },
        {
          "internalType": "bytes",
          "name": "data",
          "type": "bytes"
        }
      ],
      "name": "safeTransferFrom",
      "outputs": [],
      "stateMutability": "nonpayable",
      "type": "function"
    },
    {
      "inputs": [
        {
          "internalType": "address",
          "name": "operator",
          "type": "address"
        },
        {
          "internalType": "bool",
          "name": "approved",
          "type": "bool"
        }
      ],
      "name": "setApprovalForAll",
      "outputs": [],
      "stateMutability": "nonpayable",
      "type": "function"
    },
    {
      "inputs": [
        {
          "internalType": "uint256",
          "name": "",
          "type": "uint256"
        }
      ],
      "name": "slotAsset",
      "outputs": [
        {
          "internalType": "address",
          "name": "",
          "type": "address"
        }
      ],
      "stateMutability": "view",
      "type": "function"
    },
    {
      "inputs": [
        {
          "internalType": "uint256",
          "name": "",
          "type": "uint256"
        }
      ],
      "name": "slots",
      "outputs": [
        {
          "internalType": "uint256",
          "name": "",
          "type": "uint256"
        }
      ],
      "stateMutability": "view",
      "type": "function"
    },
    {
      "inputs": [
        {
          "internalType": "bytes4",
          "name": "interfaceId",
          "type": "bytes4"
        }
      ],
      "name": "supportsInterface",
      "outputs": [
        {
          "internalType": "bool",
          "name": "",
          "type": "bool"
        }
      ],
      "stateMutability": "view",
      "type": "function"
    },
    {
      "inputs": [],
      "name": "symbol",
      "outputs": [
        {
          "internalType": "string",
          "name": "",
          "type": "string"
        }
      ],
      "stateMutability": "view",
      "type": "function"
    },
    {
      "inputs": [
        {
          "internalType": "uint256",
          "name": "index",
          "type": "uint256"
        }
      ],
      "name": "tokenByIndex",
      "outputs": [
        {
          "internalType": "uint256",
          "name": "",
          "type": "uint256"
        }
      ],
      "stateMutability": "view",
      "type": "function"
    },
    {
      "inputs": [
        {
          "internalType": "address",
          "name": "owner",
          "type": "address"
        },
        {
          "internalType": "uint256",
          "name": "index",
          "type": "uint256"
        }
      ],
      "name": "tokenOfOwnerByIndex",
      "outputs": [
        {
          "internalType": "uint256",
          "name": "",
          "type": "uint256"
        }
      ],
      "stateMutability": "view",
      "type": "function"
    },
    {
      "inputs": [
        {
          "internalType": "uint256",
          "name": "tokenId",
          "type": "uint256"
        }
      ],
      "name": "tokenURI",
      "outputs": [
        {
          "internalType": "string",
          "name": "",
          "type": "string"
        }
      ],
      "stateMutability": "view",
      "type": "function"
    },
    {
      "inputs": [],
      "name": "totalSupply",
      "outputs": [
        {
          "internalType": "uint256",
          "name": "",
          "type": "uint256"
        }
      ],
      "stateMutability": "view",
      "type": "function"
    },
    {
      "inputs": [
        {
          "internalType": "address",
          "name": "from",
          "type": "address"
        },
        {
          "internalType": "address",
          "name": "to",
          "type": "address"
        },
        {
          "internalType": "uint256",
          "name": "tokenId",
          "type": "uint256"
        }
      ],
      "name": "transferFrom",
      "outputs": [],
      "stateMutability": "nonpayable",
      "type": "function"
    },
    {
      "inputs": [
        {
          "internalType": "uint256",
          "name": "fromTokenId",
          "type": "uint256"
        },
        {
          "internalType": "address",
          "name": "to",
          "type": "address"
        },
        {
          "internalType": "uint256",
          "name": "slotId",
          "type": "uint256"
        },
        {
          "internalType": "uint256",
          "name": "amount",
          "type": "uint256"
        }
      ],
      "name": "transferFrom",
      "outputs": [],
      "stateMutability": "nonpayable",
      "type": "function"
    },
    {
      "inputs": [
        {
          "internalType": "uint256",
          "name": "fromTokenId",
          "type": "uint256"
        },
        {
          "internalType": "uint256",
          "name": "toTokenId",
          "type": "uint256"
        },
        {
          "internalType": "uint256",
          "name": "slotId",
          "type": "uint256"
        },
        {
          "internalType": "uint256",
          "name": "amount",
          "type": "uint256"
        }
      ],
      "name": "transferFrom",
      "outputs": [],
      "stateMutability": "nonpayable",
      "type": "function"
    },
    {
      "inputs": [
        {
          "internalType": "address",
          "name": "newOwner",
          "type": "address"
        }
      ],
      "name": "transferOwnership",
      "outputs": [],
      "stateMutability": "nonpayable",
      "type": "function"
    }
  ],
  "transactionHash": "0xabcba2b45383b04b2f40038c0bf1b209b908ab81360bdd13db10d3a7e0fab5f6",
  "args": [
    "ComposableNFT",
    "ComposableNFT"
  ],
  "numDeployments": 3,
  "solcInputHash": "2b3080f2066deb381ef568dae71b1809",
  "bytecode": "0x60806040523480156200001157600080fd5b50604051620037ae380380620037ae833981016040819052620000349162000197565b81818181600062000046838262000290565b50600162000055828262000290565b505050620000726200006c6200007c60201b60201c565b62000080565b505050506200035c565b3390565b600b80546001600160a01b038381166001600160a01b0319831681179093556040519116919082907f8be0079c531659141344cd1fd0a4f28419497f9722a3daafe3b4186f6b6457e090600090a35050565b634e487b7160e01b600052604160045260246000fd5b600082601f830112620000fa57600080fd5b81516001600160401b0380821115620001175762000117620000d2565b604051601f8301601f19908116603f01168101908282118183101715620001425762000142620000d2565b816040528381526020925086838588010111156200015f57600080fd5b600091505b8382101562000183578582018301518183018401529082019062000164565b600093810190920192909252949350505050565b60008060408385031215620001ab57600080fd5b82516001600160401b0380821115620001c357600080fd5b620001d186838701620000e8565b93506020850151915080821115620001e857600080fd5b50620001f785828601620000e8565b9150509250929050565b600181811c908216806200021657607f821691505b6020821081036200023757634e487b7160e01b600052602260045260246000fd5b50919050565b601f8211156200028b57600081815260208120601f850160051c81016020861015620002665750805b601f850160051c820191505b81811015620002875782815560010162000272565b5050505b505050565b81516001600160401b03811115620002ac57620002ac620000d2565b620002c481620002bd845462000201565b846200023d565b602080601f831160018114620002fc5760008415620002e35750858301515b600019600386901b1c1916600185901b17855562000287565b600085815260208120601f198616915b828110156200032d578886015182559484019460019091019084016200030c565b50858210156200034c5787850151600019600388901b60f8161c191681555b5050505050600190811b01905550565b613442806200036c6000396000f3fe608060405234801561001057600080fd5b50600436106101fb5760003560e01c806370a082311161011a578063a73bb7a1116100ad578063c87b56dd1161007c578063c87b56dd1461044f578063d0def52114610462578063d9dd1df614610475578063e985e9c514610488578063f2fde38b146104c457600080fd5b8063a73bb7a1146103f6578063b7884da714610409578063b88d4fde14610429578063c60e7ab01461043c57600080fd5b80638856f779116100e95780638856f779146103b75780638da5cb5b146103ca57806395d89b41146103db578063a22cb465146103e357600080fd5b806370a0823114610360578063715018a61461037357806373f9f84c1461037b57806384730842146103a457600080fd5b8063387dd9e9116101925780634f6ccce7116101615780634f6ccce714610314578063541255ea1461032757806358340f391461033a5780636352211e1461034d57600080fd5b8063387dd9e9146102c857806342842e0e146102db578063457e50a9146102ee5780634cc1024d1461030157600080fd5b806318160ddd116101ce57806318160ddd1461027d5780631d608a4f1461028f57806323b872dd146102a25780632f745c59146102b557600080fd5b806301ffc9a71461020057806306fdde0314610228578063081812fc1461023d578063095ea7b314610268575b600080fd5b61021361020e366004612a24565b6104d7565b60405190151581526020015b60405180910390f35b6102306104e8565b60405161021f9190612a91565b61025061024b366004612aa4565b61057a565b6040516001600160a01b03909116815260200161021f565b61027b610276366004612ad9565b6105a1565b005b6008545b60405190815260200161021f565b61027b61029d366004612bd9565b6106bb565b61027b6102b0366004612c9b565b61071d565b6102816102c3366004612ad9565b61074e565b6102816102d6366004612aa4565b6107e4565b61027b6102e9366004612c9b565b610805565b61027b6102fc366004612cd7565b610820565b61027b61030f366004612d03565b61099f565b610281610322366004612aa4565b610bf6565b610213610335366004612aa4565b610c89565b61027b610348366004612d3e565b610cb2565b61025061035b366004612aa4565b610dee565b61028161036e366004612dd0565b610e4e565b61027b610ed4565b610250610389366004612aa4565b600e602052600090815260409020546001600160a01b031681565b61027b6103b2366004612deb565b610ee8565b61027b6103c5366004612e0d565b6111e6565b600b546001600160a01b0316610250565b6102306113fa565b61027b6103f1366004612e3f565b611409565b610281610404366004612ad9565b611418565b61041c610417366004612aa4565b611449565b60405161021f9190612e7b565b61027b610437366004612f4c565b611652565b61021361044a366004612aa4565b611684565b61023061045d366004612aa4565b6116ad565b61027b610470366004612fbc565b6116b8565b61027b610483366004612e0d565b6116ef565b61021361049636600461301e565b6001600160a01b03918216600090815260056020908152604080832093909416825291909152205460ff1690565b61027b6104d2366004612dd0565b611734565b60006104e2826117ad565b92915050565b6060600080546104f790613048565b80601f016020809104026020016040519081016040528092919081815260200182805461052390613048565b80156105705780601f1061054557610100808354040283529160200191610570565b820191906000526020600020905b81548152906001019060200180831161055357829003601f168201915b5050505050905090565b6000610585826117d2565b506000908152600460205260409020546001600160a01b031690565b60006105ac82610dee565b9050806001600160a01b0316836001600160a01b03160361061e5760405162461bcd60e51b815260206004820152602160248201527f4552433732313a20617070726f76616c20746f2063757272656e74206f776e656044820152603960f91b60648201526084015b60405180910390fd5b336001600160a01b038216148061063a575061063a8133610496565b6106ac5760405162461bcd60e51b815260206004820152603d60248201527f4552433732313a20617070726f76652063616c6c6572206973206e6f7420746f60448201527f6b656e206f776e6572206f7220617070726f76656420666f7220616c6c0000006064820152608401610615565b6106b68383611831565b505050565b6106c361189f565b60005b82518110156106b65761070b8382815181106106e4576106e4613082565b60200260200101518383815181106106fe576106fe613082565b6020026020010151610820565b80610715816130ae565b9150506106c6565b61072733826118f9565b6107435760405162461bcd60e51b8152600401610615906130c7565b6106b6838383611978565b600061075983610e4e565b82106107bb5760405162461bcd60e51b815260206004820152602b60248201527f455243373231456e756d657261626c653a206f776e657220696e646578206f7560448201526a74206f6620626f756e647360a81b6064820152608401610615565b506001600160a01b03919091166000908152600660209081526040808320938352929052205490565b600f81815481106107f457600080fd5b600091825260209091200154905081565b6106b683838360405180602001604052806000815250611652565b61082861189f565b610839816380ac58cd60e01b611ae9565b80610850575061085081636cdb3d1360e11b611ae9565b6108945760405162461bcd60e51b8152602060048201526015602482015274496e76616c6964206173736574206164647265737360581b6044820152606401610615565b6000828152600e60205260409020546001600160a01b0316156108e75760405162461bcd60e51b815260206004820152600b60248201526a536c6f742065786973747360a81b6044820152606401610615565b6000828152600e6020908152604080832080546001600160a01b0319166001600160a01b038616908117909155808452600d835281842080546001818101835591865284862001879055600f805491820181559094527f8d1108e10bcb7c27dddfc02ed9d693a074039d026cf4ea4240b40f7d581ac8029093018590558051858152918201929092527fdf4437ac00afd804dc605f59656887e2cc64a3fab598a1700eddb93d4b55181a910160405180910390a15050565b6109a884610dee565b6001600160a01b0316336001600160a01b0316146109d85760405162461bcd60e51b815260040161061590613114565b6000828152600e60205260409020546001600160a01b03166109f983610c89565b15610af257600085815260116020908152604080832086845290915281208054849290610a2790849061313d565b909155505060008581526011602090815260408083208684529091528120549003610a6e5760008581526012602090815260408083208684529091529020805460ff191690555b600085815260106020908152604080832086845290915290819020549051637921219560e11b81526001600160a01b0383169163f242432a91610aba9130918991908890600401613150565b600060405180830381600087803b158015610ad457600080fd5b505af1158015610ae8573d6000803e3d6000fd5b5050505050610bf0565b610afb83611684565b15610bee57600085815260126020908152604080832086845290915290205460ff16610b395760405162461bcd60e51b815260040161061590613188565b60008581526012602090815260408083208684528252808320805460ff191690558783526011825280832086845282528083208390558783526010825280832086845290915290819020549051632142170760e11b81523060048201526001600160a01b0386811660248301526044820192909252908216906342842e0e90606401600060405180830381600087803b158015610bd557600080fd5b505af1158015610be9573d6000803e3d6000fd5b505050505b505b50505050565b6000610c0160085490565b8210610c645760405162461bcd60e51b815260206004820152602c60248201527f455243373231456e756d657261626c653a20676c6f62616c20696e646578206f60448201526b7574206f6620626f756e647360a01b6064820152608401610615565b60088281548110610c7757610c77613082565b90600052602060002001549050919050565b6000818152600e60205260408120546104e2906001600160a01b0316636cdb3d1360e11b611ae9565b610cbb84610dee565b6001600160a01b0316336001600160a01b031614610ceb5760405162461bcd60e51b815260040161061590613114565b8151835114610d325760405162461bcd60e51b8152602060048201526013602482015272092dcc6dedce6d2e6e8cadce840d8cadccee8d606b1b6044820152606401610615565b8051825114610d795760405162461bcd60e51b8152602060048201526013602482015272092dcc6dedce6d2e6e8cadce840d8cadccee8d606b1b6044820152606401610615565b60005b8351811015610bee57610ddc85858381518110610d9b57610d9b613082565b6020026020010151858481518110610db557610db5613082565b6020026020010151858581518110610dcf57610dcf613082565b6020026020010151611b0c565b80610de6816130ae565b915050610d7c565b6000818152600260205260408120546001600160a01b0316806104e25760405162461bcd60e51b8152602060048201526018602482015277115490cdcc8c4e881a5b9d985b1a59081d1bdad95b88125160421b6044820152606401610615565b60006001600160a01b038216610eb85760405162461bcd60e51b815260206004820152602960248201527f4552433732313a2061646472657373207a65726f206973206e6f7420612076616044820152683634b21037bbb732b960b91b6064820152608401610615565b506001600160a01b031660009081526003602052604090205490565b610edc61189f565b610ee66000611df2565b565b6000818152600e60205260409020546001600160a01b031680610f3f5760405162461bcd60e51b815260206004820152600f60248201526e125b9d9b1a5859081cdb1bdd081a59608a1b6044820152606401610615565b610f4883610dee565b6001600160a01b0316336001600160a01b031614610f785760405162461bcd60e51b815260040161061590613114565b600083815260126020908152604080832085845290915290205460ff16610fd35760405162461bcd60e51b815260206004820152600f60248201526e14db1bdd081b9bdd08199a5b1b1959608a1b6044820152606401610615565b610fdc82610c89565b156111085760008381526010602090815260408083208584528252808320548684526011835281842086855290925291829020549151637921219560e11b81526001600160a01b0384169263f242432a9261103e923092339291600401613150565b600060405180830381600087803b15801561105857600080fd5b505af115801561106c573d6000803e3d6000fd5b50505060008481526012602090815260408083208684528252808320805460ff191690558683526011825280832086845280835281842084905587845260108352818420878552835281842084905582528051878152918201869052810182905260608101919091527f5c0e34f1221c8196d7d4e930b6107ba7026e873fdea2e11c025a6bf2a494d323915060800160405180910390a1505050565b61111182611684565b156106b657600083815260106020908152604080832085845290915290819020549051632142170760e11b815230600482015233602482015260448101919091526001600160a01b038216906342842e0e90606401600060405180830381600087803b15801561118057600080fd5b505af1158015611194573d6000803e3d6000fd5b50505060008481526012602090815260408083208684528252808320805460ff191690558683526011825280832086845282528083208390558683526010825280832086845290915281205550505050565b6111ef84610dee565b6001600160a01b0316336001600160a01b03161461121f5760405162461bcd60e51b815260040161061590613114565b61122882610c89565b1561131b5760008481526011602090815260408083208584529091528120805483929061125690849061313d565b90915550506000848152601160209081526040808320858452909152812054900361129d5760008481526012602090815260408083208584529091529020805460ff191690555b6000848152601060208181526040808420868552825280842054878552928252808420868552825280842092909255858352601181528183208584529052812080548392906112ed9084906131b5565b909155505060008381526012602090815260408083208584529091529020805460ff19166001179055610bf0565b61132482611684565b15610bf057600083815260126020908152604080832085845290915290205460ff16156113635760405162461bcd60e51b815260040161061590613188565b5060008381526012602081815260408084208585528252808420805460ff1990811690915587855260118084528286208787528452828620869055878652938352818520868652835281852080549091166001908117909155868552928252808420858552825280842092909255948252601080865281832084845286528183205494835285528082209282529190935290912055565b6060600180546104f790613048565b611414338383611e44565b5050565b600d602052816000526040600020818154811061143457600080fd5b90600052602060002001600091509150505481565b600f5460609060009067ffffffffffffffff81111561146a5761146a612b03565b6040519080825280602002602001820160405280156114d857816020015b6114c56040518060a001604052806000815260200160006001600160a01b0316815260200160008152602001600081526020016000151581525090565b8152602001906001900390816114885790505b5090506000805b600f5481101561164957600f81815481106114fc576114fc613082565b906000526020600020015491508183828151811061151c5761151c613082565b602090810291909101810151919091526000838152600e909152604090205483516001600160a01b039091169084908390811061155b5761155b613082565b6020908102919091018101516001600160a01b03909216918101919091526000868152601082526040808220858352909252205483518490839081106115a3576115a3613082565b602090810291909101810151604090810192909252600087815260118252828120858252909152205483518490839081106115e0576115e0613082565b6020908102919091018101516060019190915260008681526012825260408082208583529092522054835160ff9091169084908390811061162357611623613082565b602090810291909101015190151560809091015280611641816130ae565b9150506114df565b50909392505050565b61165c33836118f9565b6116785760405162461bcd60e51b8152600401610615906130c7565b610bf084848484611f12565b6000818152600e60205260408120546104e2906001600160a01b03166380ac58cd60e01b611ae9565b60606104e282611f45565b6116c061189f565b60006116cb600c5490565b90506116db600c80546001019055565b6116e5838261204d565b6106b68183612067565b6116f884610dee565b6001600160a01b0316336001600160a01b0316146117285760405162461bcd60e51b815260040161061590613114565b610bf084848484611b0c565b61173c61189f565b6001600160a01b0381166117a15760405162461bcd60e51b815260206004820152602660248201527f4f776e61626c653a206e6577206f776e657220697320746865207a65726f206160448201526564647265737360d01b6064820152608401610615565b6117aa81611df2565b50565b60006001600160e01b0319821663780e9d6360e01b14806104e257506104e2826120fa565b6000818152600260205260409020546001600160a01b03166117aa5760405162461bcd60e51b8152602060048201526018602482015277115490cdcc8c4e881a5b9d985b1a59081d1bdad95b88125160421b6044820152606401610615565b600081815260046020526040902080546001600160a01b0319166001600160a01b038416908117909155819061186682610dee565b6001600160a01b03167f8c5be1e5ebec7d5bd14f71427d1e84f3dd0314c0f7b2291e5b200ac8c7c3b92560405160405180910390a45050565b600b546001600160a01b03163314610ee65760405162461bcd60e51b815260206004820181905260248201527f4f776e61626c653a2063616c6c6572206973206e6f7420746865206f776e65726044820152606401610615565b60008061190583610dee565b9050806001600160a01b0316846001600160a01b0316148061194c57506001600160a01b0380821660009081526005602090815260408083209388168352929052205460ff165b806119705750836001600160a01b03166119658461057a565b6001600160a01b0316145b949350505050565b826001600160a01b031661198b82610dee565b6001600160a01b0316146119b15760405162461bcd60e51b8152600401610615906131c8565b6001600160a01b038216611a135760405162461bcd60e51b8152602060048201526024808201527f4552433732313a207472616e7366657220746f20746865207a65726f206164646044820152637265737360e01b6064820152608401610615565b611a20838383600161214a565b826001600160a01b0316611a3382610dee565b6001600160a01b031614611a595760405162461bcd60e51b8152600401610615906131c8565b600081815260046020908152604080832080546001600160a01b03199081169091556001600160a01b0387811680865260038552838620805460001901905590871680865283862080546001019055868652600290945282852080549092168417909155905184937fddf252ad1be2c89b69c2b068fc378daa952ba7f163c4a11628f55a4df523b3ef91a4505050565b6000611af483612156565b8015611b055750611b058383612189565b9392505050565b6000838152600e60205260409020546001600160a01b031680611b635760405162461bcd60e51b815260206004820152600f60248201526e125b9d9b1a5859081cdb1bdd081a59608a1b6044820152606401610615565b611b6c84610c89565b15611caf57604051637921219560e11b81526001600160a01b0382169063f242432a90611ba3903390309088908890600401613150565b600060405180830381600087803b158015611bbd57600080fd5b505af1158015611bd1573d6000803e3d6000fd5b505050600086815260116020908152604080832088845290915281208054859350909190611c009084906131b5565b9091555050600085815260126020908152604080832087845290915290205460ff16611c605760008581526010602090815260408083208784528252808320869055878352601282528083208784529091529020805460ff191660011790555b6040805186815260208101869052908101849052606081018390527f624e3fcd2f7917d06cfee14869aa98d8675125ec23c227b4e80d4ca653c106d4906080015b60405180910390a150610bf0565b611cb884611684565b15610bee57600085815260126020908152604080832087845290915290205460ff1615611cf75760405162461bcd60e51b815260040161061590613188565b604051632142170760e11b8152336004820152306024820152604481018490526001600160a01b038216906342842e0e90606401600060405180830381600087803b158015611d4557600080fd5b505af1158015611d59573d6000803e3d6000fd5b5050506000868152601060209081526040808320888452825280832087905588835260118252808320888452825280832060019081905589845260128352818420898552835292819020805460ff19169093179092558151888152908101879052908101859052606081018490527f624e3fcd2f7917d06cfee14869aa98d8675125ec23c227b4e80d4ca653c106d49150608001611ca1565b600b80546001600160a01b038381166001600160a01b0319831681179093556040519116919082907f8be0079c531659141344cd1fd0a4f28419497f9722a3daafe3b4186f6b6457e090600090a35050565b816001600160a01b0316836001600160a01b031603611ea55760405162461bcd60e51b815260206004820152601960248201527f4552433732313a20617070726f766520746f2063616c6c6572000000000000006044820152606401610615565b6001600160a01b03838116600081815260056020908152604080832094871680845294825291829020805460ff191686151590811790915591519182527f17307eab39ab6107e8899845ad3d59bd9653f200f220920489ca2b5937696c31910160405180910390a3505050565b611f1d848484611978565b611f2984848484612212565b610bf05760405162461bcd60e51b81526004016106159061320d565b6060611f50826117d2565b6000828152600a602052604081208054611f6990613048565b80601f0160208091040260200160405190810160405280929190818152602001828054611f9590613048565b8015611fe25780601f10611fb757610100808354040283529160200191611fe2565b820191906000526020600020905b815481529060010190602001808311611fc557829003601f168201915b50505050509050600061200060408051602081019091526000815290565b90508051600003612012575092915050565b81511561204457808260405160200161202c92919061325f565b60405160208183030381529060405292505050919050565b61197084612313565b611414828260405180602001604052806000815250612386565b6000828152600260205260409020546001600160a01b03166120e25760405162461bcd60e51b815260206004820152602e60248201527f45524337323155524953746f726167653a2055524920736574206f66206e6f6e60448201526d32bc34b9ba32b73a103a37b5b2b760911b6064820152608401610615565b6000828152600a602052604090206106b682826132dc565b60006001600160e01b031982166380ac58cd60e01b148061212b57506001600160e01b03198216635b5e139f60e01b145b806104e257506301ffc9a760e01b6001600160e01b03198316146104e2565b610bf0848484846123b9565b6000612169826301ffc9a760e01b612189565b80156104e25750612182826001600160e01b0319612189565b1592915050565b604080516001600160e01b03198316602480830191909152825180830390910181526044909101909152602080820180516001600160e01b03166301ffc9a760e01b178152825160009392849283928392918391908a617530fa92503d915060005190508280156121fb575060208210155b80156122075750600081115b979650505050505050565b60006001600160a01b0384163b1561230857604051630a85bd0160e11b81526001600160a01b0385169063150b7a029061225690339089908890889060040161339c565b6020604051808303816000875af1925050508015612291575060408051601f3d908101601f1916820190925261228e918101906133d9565b60015b6122ee573d8080156122bf576040519150601f19603f3d011682016040523d82523d6000602084013e6122c4565b606091505b5080516000036122e65760405162461bcd60e51b81526004016106159061320d565b805181602001fd5b6001600160e01b031916630a85bd0160e11b149050611970565b506001949350505050565b606061231e826117d2565b600061233560408051602081019091526000815290565b905060008151116123555760405180602001604052806000815250611b05565b8061235f846124f2565b60405160200161237092919061325f565b6040516020818303038152906040529392505050565b6123908383612585565b61239d6000848484612212565b6106b65760405162461bcd60e51b81526004016106159061320d565b6123c58484848461271e565b60018111156124345760405162461bcd60e51b815260206004820152603560248201527f455243373231456e756d657261626c653a20636f6e7365637574697665207472604482015274185b9cd9995c9cc81b9bdd081cdd5c1c1bdc9d1959605a1b6064820152608401610615565b816001600160a01b0385166124905761248b81600880546000838152600960205260408120829055600182018355919091527ff3f7a9fe364faab93b216da50a3214154f22a0a2b415b23a84c8169e8b636ee30155565b6124b3565b836001600160a01b0316856001600160a01b0316146124b3576124b385826127a6565b6001600160a01b0384166124cf576124ca81612843565b610bee565b846001600160a01b0316846001600160a01b031614610bee57610bee84826128f2565b606060006124ff83612936565b600101905060008167ffffffffffffffff81111561251f5761251f612b03565b6040519080825280601f01601f191660200182016040528015612549576020820181803683370190505b5090508181016020015b600019016f181899199a1a9b1b9c1cb0b131b232b360811b600a86061a8153600a850494508461255357509392505050565b6001600160a01b0382166125db5760405162461bcd60e51b815260206004820181905260248201527f4552433732313a206d696e7420746f20746865207a65726f20616464726573736044820152606401610615565b6000818152600260205260409020546001600160a01b0316156126405760405162461bcd60e51b815260206004820152601c60248201527f4552433732313a20746f6b656e20616c7265616479206d696e746564000000006044820152606401610615565b61264e60008383600161214a565b6000818152600260205260409020546001600160a01b0316156126b35760405162461bcd60e51b815260206004820152601c60248201527f4552433732313a20746f6b656e20616c7265616479206d696e746564000000006044820152606401610615565b6001600160a01b038216600081815260036020908152604080832080546001019055848352600290915280822080546001600160a01b0319168417905551839291907fddf252ad1be2c89b69c2b068fc378daa952ba7f163c4a11628f55a4df523b3ef908290a45050565b6001811115610bf0576001600160a01b03841615612764576001600160a01b0384166000908152600360205260408120805483929061275e90849061313d565b90915550505b6001600160a01b03831615610bf0576001600160a01b0383166000908152600360205260408120805483929061279b9084906131b5565b909155505050505050565b600060016127b384610e4e565b6127bd919061313d565b600083815260076020526040902054909150808214612810576001600160a01b03841660009081526006602090815260408083208584528252808320548484528184208190558352600790915290208190555b5060009182526007602090815260408084208490556001600160a01b039094168352600681528383209183525290812055565b6008546000906128559060019061313d565b6000838152600960205260408120546008805493945090928490811061287d5761287d613082565b90600052602060002001549050806008838154811061289e5761289e613082565b60009182526020808320909101929092558281526009909152604080822084905585825281205560088054806128d6576128d66133f6565b6001900381819060005260206000200160009055905550505050565b60006128fd83610e4e565b6001600160a01b039093166000908152600660209081526040808320868452825280832085905593825260079052919091209190915550565b60008072184f03e93ff9f4daa797ed6e38ed64bf6a1f0160401b83106129755772184f03e93ff9f4daa797ed6e38ed64bf6a1f0160401b830492506040015b6d04ee2d6d415b85acef810000000083106129a1576d04ee2d6d415b85acef8100000000830492506020015b662386f26fc1000083106129bf57662386f26fc10000830492506010015b6305f5e10083106129d7576305f5e100830492506008015b61271083106129eb57612710830492506004015b606483106129fd576064830492506002015b600a83106104e25760010192915050565b6001600160e01b0319811681146117aa57600080fd5b600060208284031215612a3657600080fd5b8135611b0581612a0e565b60005b83811015612a5c578181015183820152602001612a44565b50506000910152565b60008151808452612a7d816020860160208601612a41565b601f01601f19169290920160200192915050565b602081526000611b056020830184612a65565b600060208284031215612ab657600080fd5b5035919050565b80356001600160a01b0381168114612ad457600080fd5b919050565b60008060408385031215612aec57600080fd5b612af583612abd565b946020939093013593505050565b634e487b7160e01b600052604160045260246000fd5b604051601f8201601f1916810167ffffffffffffffff81118282101715612b4257612b42612b03565b604052919050565b600067ffffffffffffffff821115612b6457612b64612b03565b5060051b60200190565b600082601f830112612b7f57600080fd5b81356020612b94612b8f83612b4a565b612b19565b82815260059290921b84018101918181019086841115612bb357600080fd5b8286015b84811015612bce5780358352918301918301612bb7565b509695505050505050565b60008060408385031215612bec57600080fd5b823567ffffffffffffffff80821115612c0457600080fd5b612c1086838701612b6e565b9350602091508185013581811115612c2757600080fd5b85019050601f81018613612c3a57600080fd5b8035612c48612b8f82612b4a565b81815260059190911b82018301908381019088831115612c6757600080fd5b928401925b82841015612c8c57612c7d84612abd565b82529284019290840190612c6c565b80955050505050509250929050565b600080600060608486031215612cb057600080fd5b612cb984612abd565b9250612cc760208501612abd565b9150604084013590509250925092565b60008060408385031215612cea57600080fd5b82359150612cfa60208401612abd565b90509250929050565b60008060008060808587031215612d1957600080fd5b84359350612d2960208601612abd565b93969395505050506040820135916060013590565b60008060008060808587031215612d5457600080fd5b84359350602085013567ffffffffffffffff80821115612d7357600080fd5b612d7f88838901612b6e565b94506040870135915080821115612d9557600080fd5b612da188838901612b6e565b93506060870135915080821115612db757600080fd5b50612dc487828801612b6e565b91505092959194509250565b600060208284031215612de257600080fd5b611b0582612abd565b60008060408385031215612dfe57600080fd5b50508035926020909101359150565b60008060008060808587031215612e2357600080fd5b5050823594602084013594506040840135936060013592509050565b60008060408385031215612e5257600080fd5b612e5b83612abd565b915060208301358015158114612e7057600080fd5b809150509250929050565b602080825282518282018190526000919060409081850190868401855b82811015612ee757815180518552868101516001600160a01b03168786015285810151868601526060808201519086015260809081015115159085015260a09093019290850190600101612e98565b5091979650505050505050565b600067ffffffffffffffff831115612f0e57612f0e612b03565b612f21601f8401601f1916602001612b19565b9050828152838383011115612f3557600080fd5b828260208301376000602084830101529392505050565b60008060008060808587031215612f6257600080fd5b612f6b85612abd565b9350612f7960208601612abd565b925060408501359150606085013567ffffffffffffffff811115612f9c57600080fd5b8501601f81018713612fad57600080fd5b612dc487823560208401612ef4565b60008060408385031215612fcf57600080fd5b612fd883612abd565b9150602083013567ffffffffffffffff811115612ff457600080fd5b8301601f8101851361300557600080fd5b61301485823560208401612ef4565b9150509250929050565b6000806040838503121561303157600080fd5b61303a83612abd565b9150612cfa60208401612abd565b600181811c9082168061305c57607f821691505b60208210810361307c57634e487b7160e01b600052602260045260246000fd5b50919050565b634e487b7160e01b600052603260045260246000fd5b634e487b7160e01b600052601160045260246000fd5b6000600182016130c0576130c0613098565b5060010190565b6020808252602d908201527f4552433732313a2063616c6c6572206973206e6f7420746f6b656e206f776e6560408201526c1c881bdc88185c1c1c9bdd9959609a1b606082015260800190565b6020808252600f908201526e2737ba103a37b5b2b71037bbb732b960891b604082015260600190565b818103818111156104e2576104e2613098565b6001600160a01b0394851681529290931660208301526040820152606081019190915260a06080820181905260009082015260c00190565b60208082526013908201527214db1bdd08185b1c9958591e48199a5b1b1959606a1b604082015260600190565b808201808211156104e2576104e2613098565b60208082526025908201527f4552433732313a207472616e736665722066726f6d20696e636f72726563742060408201526437bbb732b960d91b606082015260800190565b60208082526032908201527f4552433732313a207472616e7366657220746f206e6f6e20455243373231526560408201527131b2b4bb32b91034b6b83632b6b2b73a32b960711b606082015260800190565b60008351613271818460208801612a41565b835190830190613285818360208801612a41565b01949350505050565b601f8211156106b657600081815260208120601f850160051c810160208610156132b55750805b601f850160051c820191505b818110156132d4578281556001016132c1565b505050505050565b815167ffffffffffffffff8111156132f6576132f6612b03565b61330a816133048454613048565b8461328e565b602080601f83116001811461333f57600084156133275750858301515b600019600386901b1c1916600185901b1785556132d4565b600085815260208120601f198616915b8281101561336e5788860151825594840194600190910190840161334f565b508582101561338c5787850151600019600388901b60f8161c191681555b5050505050600190811b01905550565b6001600160a01b03858116825284166020820152604081018390526080606082018190526000906133cf90830184612a65565b9695505050505050565b6000602082840312156133eb57600080fd5b8151611b0581612a0e565b634e487b7160e01b600052603160045260246000fdfea2646970667358221220d921ccd14161cc1490b9ae1f98fdb78485c20c5e73ba331975fb998ae9ba096b64736f6c63430008110033",
  "devdoc": {
    "kind": "dev",
    "methods": {
      "approve(address,uint256)": {
        "details": "See {IERC721-approve}."
      },
      "balanceOf(address)": {
        "details": "See {IERC721-balanceOf}."
      },
      "getApproved(uint256)": {
        "details": "See {IERC721-getApproved}."
      },
      "isApprovedForAll(address,address)": {
        "details": "See {IERC721-isApprovedForAll}."
      },
      "name()": {
        "details": "See {IERC721Metadata-name}."
      },
      "owner()": {
        "details": "Returns the address of the current owner."
      },
      "ownerOf(uint256)": {
        "details": "See {IERC721-ownerOf}."
      },
      "renounceOwnership()": {
        "details": "Leaves the contract without owner. It will not be possible to call `onlyOwner` functions anymore. Can only be called by the current owner. NOTE: Renouncing ownership will leave the contract without an owner, thereby removing any functionality that is only available to the owner."
      },
      "safeTransferFrom(address,address,uint256)": {
        "details": "See {IERC721-safeTransferFrom}."
      },
      "safeTransferFrom(address,address,uint256,bytes)": {
        "details": "See {IERC721-safeTransferFrom}."
      },
      "setApprovalForAll(address,bool)": {
        "details": "See {IERC721-setApprovalForAll}."
      },
      "symbol()": {
        "details": "See {IERC721Metadata-symbol}."
      },
      "tokenByIndex(uint256)": {
        "details": "See {IERC721Enumerable-tokenByIndex}."
      },
      "tokenOfOwnerByIndex(address,uint256)": {
        "details": "See {IERC721Enumerable-tokenOfOwnerByIndex}."
      },
      "totalSupply()": {
        "details": "See {IERC721Enumerable-totalSupply}."
      },
      "transferFrom(address,address,uint256)": {
        "details": "See {IERC721-transferFrom}."
      },
      "transferOwnership(address)": {
        "details": "Transfers ownership of the contract to a new account (`newOwner`). Can only be called by the current owner."
      }
    },
    "version": 1
  },
  "userdoc": {
    "kind": "user",
    "methods": {},
    "version": 1
  },
  "storageLayout": {
    "storage": [
      {
        "astId": 266,
        "contract": "contracts/ComposableNFT.sol:ComposableNFT",
        "label": "_name",
        "offset": 0,
        "slot": "0",
        "type": "t_string_storage"
      },
      {
        "astId": 268,
        "contract": "contracts/ComposableNFT.sol:ComposableNFT",
        "label": "_symbol",
        "offset": 0,
        "slot": "1",
        "type": "t_string_storage"
      },
      {
        "astId": 272,
        "contract": "contracts/ComposableNFT.sol:ComposableNFT",
        "label": "_owners",
        "offset": 0,
        "slot": "2",
        "type": "t_mapping(t_uint256,t_address)"
      },
      {
        "astId": 276,
        "contract": "contracts/ComposableNFT.sol:ComposableNFT",
        "label": "_balances",
        "offset": 0,
        "slot": "3",
        "type": "t_mapping(t_address,t_uint256)"
      },
      {
        "astId": 280,
        "contract": "contracts/ComposableNFT.sol:ComposableNFT",
        "label": "_tokenApprovals",
        "offset": 0,
        "slot": "4",
        "type": "t_mapping(t_uint256,t_address)"
      },
      {
        "astId": 286,
        "contract": "contracts/ComposableNFT.sol:ComposableNFT",
        "label": "_operatorApprovals",
        "offset": 0,
        "slot": "5",
        "type": "t_mapping(t_address,t_mapping(t_address,t_bool))"
      },
      {
        "astId": 1334,
        "contract": "contracts/ComposableNFT.sol:ComposableNFT",
        "label": "_ownedTokens",
        "offset": 0,
        "slot": "6",
        "type": "t_mapping(t_address,t_mapping(t_uint256,t_uint256))"
      },
      {
        "astId": 1338,
        "contract": "contracts/ComposableNFT.sol:ComposableNFT",
        "label": "_ownedTokensIndex",
        "offset": 0,
        "slot": "7",
        "type": "t_mapping(t_uint256,t_uint256)"
      },
      {
        "astId": 1341,
        "contract": "contracts/ComposableNFT.sol:ComposableNFT",
        "label": "_allTokens",
        "offset": 0,
        "slot": "8",
        "type": "t_array(t_uint256)dyn_storage"
      },
      {
        "astId": 1345,
        "contract": "contracts/ComposableNFT.sol:ComposableNFT",
        "label": "_allTokensIndex",
        "offset": 0,
        "slot": "9",
        "type": "t_mapping(t_uint256,t_uint256)"
      },
      {
        "astId": 1686,
        "contract": "contracts/ComposableNFT.sol:ComposableNFT",
        "label": "_tokenURIs",
        "offset": 0,
        "slot": "10",
        "type": "t_mapping(t_uint256,t_string_storage)"
      },
      {
        "astId": 7,
        "contract": "contracts/ComposableNFT.sol:ComposableNFT",
        "label": "_owner",
        "offset": 0,
        "slot": "11",
        "type": "t_address"
      },
      {
        "astId": 4611,
        "contract": "contracts/ComposableNFT.sol:ComposableNFT",
        "label": "_tokenIdCounter",
        "offset": 0,
        "slot": "12",
        "type": "t_struct(Counter)2261_storage"
      },
      {
        "astId": 3624,
        "contract": "contracts/ComposableNFT.sol:ComposableNFT",
        "label": "assetSlots",
        "offset": 0,
        "slot": "13",
        "type": "t_mapping(t_address,t_array(t_uint256)dyn_storage)"
      },
      {
        "astId": 3628,
        "contract": "contracts/ComposableNFT.sol:ComposableNFT",
        "label": "slotAsset",
        "offset": 0,
        "slot": "14",
        "type": "t_mapping(t_uint256,t_address)"
      },
      {
        "astId": 3631,
        "contract": "contracts/ComposableNFT.sol:ComposableNFT",
        "label": "slots",
        "offset": 0,
        "slot": "15",
        "type": "t_array(t_uint256)dyn_storage"
      },
      {
        "astId": 3637,
        "contract": "contracts/ComposableNFT.sol:ComposableNFT",
        "label": "tokenSlotsData",
        "offset": 0,
        "slot": "16",
        "type": "t_mapping(t_uint256,t_mapping(t_uint256,t_uint256))"
      },
      {
        "astId": 3643,
        "contract": "contracts/ComposableNFT.sol:ComposableNFT",
        "label": "tokenSlotsBalance",
        "offset": 0,
        "slot": "17",
        "type": "t_mapping(t_uint256,t_mapping(t_uint256,t_uint256))"
      },
      {
        "astId": 3649,
        "contract": "contracts/ComposableNFT.sol:ComposableNFT",
        "label": "tokenSlotsFilled",
        "offset": 0,
        "slot": "18",
        "type": "t_mapping(t_uint256,t_mapping(t_uint256,t_bool))"
      }
    ],
    "types": {
      "t_address": {
        "encoding": "inplace",
        "label": "address",
        "numberOfBytes": "20"
      },
      "t_array(t_uint256)dyn_storage": {
        "base": "t_uint256",
        "encoding": "dynamic_array",
        "label": "uint256[]",
        "numberOfBytes": "32"
      },
      "t_bool": {
        "encoding": "inplace",
        "label": "bool",
        "numberOfBytes": "1"
      },
      "t_mapping(t_address,t_array(t_uint256)dyn_storage)": {
        "encoding": "mapping",
        "key": "t_address",
        "label": "mapping(address => uint256[])",
        "numberOfBytes": "32",
        "value": "t_array(t_uint256)dyn_storage"
      },
      "t_mapping(t_address,t_bool)": {
        "encoding": "mapping",
        "key": "t_address",
        "label": "mapping(address => bool)",
        "numberOfBytes": "32",
        "value": "t_bool"
      },
      "t_mapping(t_address,t_mapping(t_address,t_bool))": {
        "encoding": "mapping",
        "key": "t_address",
        "label": "mapping(address => mapping(address => bool))",
        "numberOfBytes": "32",
        "value": "t_mapping(t_address,t_bool)"
      },
      "t_mapping(t_address,t_mapping(t_uint256,t_uint256))": {
        "encoding": "mapping",
        "key": "t_address",
        "label": "mapping(address => mapping(uint256 => uint256))",
        "numberOfBytes": "32",
        "value": "t_mapping(t_uint256,t_uint256)"
      },
      "t_mapping(t_address,t_uint256)": {
        "encoding": "mapping",
        "key": "t_address",
        "label": "mapping(address => uint256)",
        "numberOfBytes": "32",
        "value": "t_uint256"
      },
      "t_mapping(t_uint256,t_address)": {
        "encoding": "mapping",
        "key": "t_uint256",
        "label": "mapping(uint256 => address)",
        "numberOfBytes": "32",
        "value": "t_address"
      },
      "t_mapping(t_uint256,t_bool)": {
        "encoding": "mapping",
        "key": "t_uint256",
        "label": "mapping(uint256 => bool)",
        "numberOfBytes": "32",
        "value": "t_bool"
      },
      "t_mapping(t_uint256,t_mapping(t_uint256,t_bool))": {
        "encoding": "mapping",
        "key": "t_uint256",
        "label": "mapping(uint256 => mapping(uint256 => bool))",
        "numberOfBytes": "32",
        "value": "t_mapping(t_uint256,t_bool)"
      },
      "t_mapping(t_uint256,t_mapping(t_uint256,t_uint256))": {
        "encoding": "mapping",
        "key": "t_uint256",
        "label": "mapping(uint256 => mapping(uint256 => uint256))",
        "numberOfBytes": "32",
        "value": "t_mapping(t_uint256,t_uint256)"
      },
      "t_mapping(t_uint256,t_string_storage)": {
        "encoding": "mapping",
        "key": "t_uint256",
        "label": "mapping(uint256 => string)",
        "numberOfBytes": "32",
        "value": "t_string_storage"
      },
      "t_mapping(t_uint256,t_uint256)": {
        "encoding": "mapping",
        "key": "t_uint256",
        "label": "mapping(uint256 => uint256)",
        "numberOfBytes": "32",
        "value": "t_uint256"
      },
      "t_string_storage": {
        "encoding": "bytes",
        "label": "string",
        "numberOfBytes": "32"
      },
      "t_struct(Counter)2261_storage": {
        "encoding": "inplace",
        "label": "struct Counters.Counter",
        "members": [
          {
            "astId": 2260,
            "contract": "contracts/ComposableNFT.sol:ComposableNFT",
            "label": "_value",
            "offset": 0,
            "slot": "0",
            "type": "t_uint256"
          }
        ],
        "numberOfBytes": "32"
      },
      "t_uint256": {
        "encoding": "inplace",
        "label": "uint256",
        "numberOfBytes": "32"
      }
    }
  }
}