{
  "address": "0x1d3fd2851979224B36dEC91586b5cFa8b2b8bAD4",
  "abi": [
    {
      "inputs": [],
      "stateMutability": "nonpayable",
      "type": "constructor"
    },
    {
      "anonymous": false,
      "inputs": [
        {
          "indexed": true,
          "internalType": "address",
          "name": "account",
          "type": "address"
        },
        {
          "indexed": true,
          "internalType": "address",
          "name": "operator",
          "type": "address"
        },
        {
          "indexed": false,
          "internalType": "bool",
          "name": "approved",
          "type": "bool"
        }
      ],
      "name": "ApprovalForAll",
      "type": "event"
    },
    {
      "anonymous": false,
      "inputs": [
        {
          "indexed": true,
          "internalType": "address",
          "name": "previousOwner",
          "type": "address"
        },
        {
          "indexed": true,
          "internalType": "address",
          "name": "newOwner",
          "type": "address"
        }
      ],
      "name": "OwnershipTransferred",
      "type": "event"
    },
    {
      "anonymous": false,
      "inputs": [
        {
          "indexed": true,
          "internalType": "address",
          "name": "operator",
          "type": "address"
        },
        {
          "indexed": true,
          "internalType": "address",
          "name": "from",
          "type": "address"
        },
        {
          "indexed": true,
          "internalType": "address",
          "name": "to",
          "type": "address"
        },
        {
          "indexed": false,
          "internalType": "uint256[]",
          "name": "ids",
          "type": "uint256[]"
        },
        {
          "indexed": false,
          "internalType": "uint256[]",
          "name": "values",
          "type": "uint256[]"
        }
      ],
      "name": "TransferBatch",
      "type": "event"
    },
    {
      "anonymous": false,
      "inputs": [
        {
          "indexed": true,
          "internalType": "address",
          "name": "operator",
          "type": "address"
        },
        {
          "indexed": true,
          "internalType": "address",
          "name": "from",
          "type": "address"
        },
        {
          "indexed": true,
          "internalType": "address",
          "name": "to",
          "type": "address"
        },
        {
          "indexed": false,
          "internalType": "uint256",
          "name": "id",
          "type": "uint256"
        },
        {
          "indexed": false,
          "internalType": "uint256",
          "name": "value",
          "type": "uint256"
        }
      ],
      "name": "TransferSingle",
      "type": "event"
    },
    {
      "anonymous": false,
      "inputs": [
        {
          "indexed": false,
          "internalType": "string",
          "name": "value",
          "type": "string"
        },
        {
          "indexed": true,
          "internalType": "uint256",
          "name": "id",
          "type": "uint256"
        }
      ],
      "name": "URI",
      "type": "event"
    },
    {
      "inputs": [
        {
          "internalType": "address",
          "name": "account",
          "type": "address"
        },
        {
          "internalType": "uint256",
          "name": "id",
          "type": "uint256"
        }
      ],
      "name": "balanceOf",
      "outputs": [
        {
          "internalType": "uint256",
          "name": "",
          "type": "uint256"
        }
      ],
      "stateMutability": "view",
      "type": "function"
    },
    {
      "inputs": [
        {
          "internalType": "address[]",
          "name": "accounts",
          "type": "address[]"
        },
        {
          "internalType": "uint256[]",
          "name": "ids",
          "type": "uint256[]"
        }
      ],
      "name": "balanceOfBatch",
      "outputs": [
        {
          "internalType": "uint256[]",
          "name": "",
          "type": "uint256[]"
        }
      ],
      "stateMutability": "view",
      "type": "function"
    },
    {
      "inputs": [
        {
          "internalType": "uint256",
          "name": "id",
          "type": "uint256"
        }
      ],
      "name": "exists",
      "outputs": [
        {
          "internalType": "bool",
          "name": "",
          "type": "bool"
        }
      ],
      "stateMutability": "view",
      "type": "function"
    },
    {
      "inputs": [
        {
          "internalType": "address",
          "name": "account",
          "type": "address"
        },
        {
          "internalType": "address",
          "name": "operator",
          "type": "address"
        }
      ],
      "name": "isApprovedForAll",
      "outputs": [
        {
          "internalType": "bool",
          "name": "",
          "type": "bool"
        }
      ],
      "stateMutability": "view",
      "type": "function"
    },
    {
      "inputs": [
        {
          "internalType": "address",
          "name": "account",
          "type": "address"
        },
        {
          "internalType": "uint256",
          "name": "id",
          "type": "uint256"
        },
        {
          "internalType": "uint256",
          "name": "amount",
          "type": "uint256"
        },
        {
          "internalType": "bytes",
          "name": "data",
          "type": "bytes"
        }
      ],
      "name": "mint",
      "outputs": [],
      "stateMutability": "nonpayable",
      "type": "function"
    },
    {
      "inputs": [
        {
          "internalType": "address",
          "name": "to",
          "type": "address"
        },
        {
          "internalType": "uint256[]",
          "name": "ids",
          "type": "uint256[]"
        },
        {
          "internalType": "uint256[]",
          "name": "amounts",
          "type": "uint256[]"
        },
        {
          "internalType": "bytes",
          "name": "data",
          "type": "bytes"
        }
      ],
      "name": "mintBatch",
      "outputs": [],
      "stateMutability": "nonpayable",
      "type": "function"
    },
    {
      "inputs": [],
      "name": "owner",
      "outputs": [
        {
          "internalType": "address",
          "name": "",
          "type": "address"
        }
      ],
      "stateMutability": "view",
      "type": "function"
    },
    {
      "inputs": [],
      "name": "renounceOwnership",
      "outputs": [],
      "stateMutability": "nonpayable",
      "type": "function"
    },
    {
      "inputs": [
        {
          "internalType": "address",
          "name": "from",
          "type": "address"
        },
        {
          "internalType": "address",
          "name": "to",
          "type": "address"
        },
        {
          "internalType": "uint256[]",
          "name": "ids",
          "type": "uint256[]"
        },
        {
          "internalType": "uint256[]",
          "name": "amounts",
          "type": "uint256[]"
        },
        {
          "internalType": "bytes",
          "name": "data",
          "type": "bytes"
        }
      ],
      "name": "safeBatchTransferFrom",
      "outputs": [],
      "stateMutability": "nonpayable",
      "type": "function"
    },
    {
      "inputs": [
        {
          "internalType": "address",
          "name": "from",
          "type": "address"
        },
        {
          "internalType": "address",
          "name": "to",
          "type": "address"
        },
        {
          "internalType": "uint256",
          "name": "id",
          "type": "uint256"
        },
        {
          "internalType": "uint256",
          "name": "amount",
          "type": "uint256"
        },
        {
          "internalType": "bytes",
          "name": "data",
          "type": "bytes"
        }
      ],
      "name": "safeTransferFrom",
      "outputs": [],
      "stateMutability": "nonpayable",
      "type": "function"
    },
    {
      "inputs": [
        {
          "internalType": "address",
          "name": "operator",
          "type": "address"
        },
        {
          "internalType": "bool",
          "name": "approved",
          "type": "bool"
        }
      ],
      "name": "setApprovalForAll",
      "outputs": [],
      "stateMutability": "nonpayable",
      "type": "function"
    },
    {
      "inputs": [
        {
          "internalType": "string",
          "name": "newuri",
          "type": "string"
        }
      ],
      "name": "setURI",
      "outputs": [],
      "stateMutability": "nonpayable",
      "type": "function"
    },
    {
      "inputs": [
        {
          "internalType": "bytes4",
          "name": "interfaceId",
          "type": "bytes4"
        }
      ],
      "name": "supportsInterface",
      "outputs": [
        {
          "internalType": "bool",
          "name": "",
          "type": "bool"
        }
      ],
      "stateMutability": "view",
      "type": "function"
    },
    {
      "inputs": [
        {
          "internalType": "uint256",
          "name": "id",
          "type": "uint256"
        }
      ],
      "name": "totalSupply",
      "outputs": [
        {
          "internalType": "uint256",
          "name": "",
          "type": "uint256"
        }
      ],
      "stateMutability": "view",
      "type": "function"
    },
    {
      "inputs": [
        {
          "internalType": "address",
          "name": "newOwner",
          "type": "address"
        }
      ],
      "name": "transferOwnership",
      "outputs": [],
      "stateMutability": "nonpayable",
      "type": "function"
    },
    {
      "inputs": [
        {
          "internalType": "uint256",
          "name": "",
          "type": "uint256"
        }
      ],
      "name": "uri",
      "outputs": [
        {
          "internalType": "string",
          "name": "",
          "type": "string"
        }
      ],
      "stateMutability": "view",
      "type": "function"
    }
  ],
  "transactionHash": "0x74a5dc9a5559373da1f3d3dbaf000308aa238e2631877bb8ff19677fbf3d373e",
  "args": [],
  "numDeployments": 1,
  "solcInputHash": "fd59f0c944586595d720a1a2d5ffb839",
  "bytecode": "0x60806040523480156200001157600080fd5b506040805160208101909152600081526200002c816200003e565b50620000383362000050565b62000213565b60026200004c828262000147565b5050565b600380546001600160a01b038381166001600160a01b0319831681179093556040519116919082907f8be0079c531659141344cd1fd0a4f28419497f9722a3daafe3b4186f6b6457e090600090a35050565b634e487b7160e01b600052604160045260246000fd5b600181811c90821680620000cd57607f821691505b602082108103620000ee57634e487b7160e01b600052602260045260246000fd5b50919050565b601f8211156200014257600081815260208120601f850160051c810160208610156200011d5750805b601f850160051c820191505b818110156200013e5782815560010162000129565b5050505b505050565b81516001600160401b03811115620001635762000163620000a2565b6200017b81620001748454620000b8565b84620000f4565b602080601f831160018114620001b357600084156200019a5750858301515b600019600386901b1c1916600185901b1785556200013e565b600085815260208120601f198616915b82811015620001e457888601518255948401946001909101908401620001c3565b5085821015620002035787850151600019600388901b60f8161c191681555b5050505050600190811b01905550565b611cbb80620002236000396000f3fe608060405234801561001057600080fd5b50600436106100ff5760003560e01c8063715018a611610097578063bd85b03911610066578063bd85b03914610233578063e985e9c514610253578063f242432a1461028f578063f2fde38b146102a257600080fd5b8063715018a6146101ea578063731133e9146101f25780638da5cb5b14610205578063a22cb4651461022057600080fd5b80631f7fdffa116100d35780631f7fdffa146101825780632eb2c2d6146101955780634e1273f4146101a85780634f558e79146101c857600080fd5b8062fdd58e1461010457806301ffc9a71461012a57806302fe53051461014d5780630e89341c14610162575b600080fd5b610117610112366004611189565b6102b5565b6040519081526020015b60405180910390f35b61013d6101383660046111c9565b61034e565b6040519015158152602001610121565b61016061015b36600461128e565b61039e565b005b6101756101703660046112df565b6103b2565b604051610121919061133e565b610160610190366004611406565b610446565b6101606101a336600461149f565b610460565b6101bb6101b6366004611549565b6104ac565b604051610121919061164f565b61013d6101d63660046112df565b600090815260046020526040902054151590565b6101606105d6565b610160610200366004611662565b6105ea565b6003546040516001600160a01b039091168152602001610121565b61016061022e3660046116b7565b6105fe565b6101176102413660046112df565b60009081526004602052604090205490565b61013d6102613660046116f3565b6001600160a01b03918216600090815260016020908152604080832093909416825291909152205460ff1690565b61016061029d366004611726565b61060d565b6101606102b036600461178b565b610652565b60006001600160a01b0383166103255760405162461bcd60e51b815260206004820152602a60248201527f455243313135353a2061646472657373207a65726f206973206e6f742061207660448201526930b634b21037bbb732b960b11b60648201526084015b60405180910390fd5b506000818152602081815260408083206001600160a01b03861684529091529020545b92915050565b60006001600160e01b03198216636cdb3d1360e11b148061037f57506001600160e01b031982166303a24d0760e21b145b8061034857506301ffc9a760e01b6001600160e01b0319831614610348565b6103a66106c8565b6103af81610722565b50565b6060600280546103c1906117a6565b80601f01602080910402602001604051908101604052809291908181526020018280546103ed906117a6565b801561043a5780601f1061040f5761010080835404028352916020019161043a565b820191906000526020600020905b81548152906001019060200180831161041d57829003601f168201915b50505050509050919050565b61044e6106c8565b61045a8484848461072e565b50505050565b6001600160a01b03851633148061047c575061047c8533610261565b6104985760405162461bcd60e51b815260040161031c906117e0565b6104a58585858585610888565b5050505050565b606081518351146105115760405162461bcd60e51b815260206004820152602960248201527f455243313135353a206163636f756e747320616e6420696473206c656e677468604482015268040dad2e6dac2e8c6d60bb1b606482015260840161031c565b6000835167ffffffffffffffff81111561052d5761052d6111ed565b604051908082528060200260200182016040528015610556578160200160208202803683370190505b50905060005b84518110156105ce576105a185828151811061057a5761057a61182e565b60200260200101518583815181106105945761059461182e565b60200260200101516102b5565b8282815181106105b3576105b361182e565b60209081029190910101526105c78161185a565b905061055c565b509392505050565b6105de6106c8565b6105e86000610a32565b565b6105f26106c8565b61045a84848484610a84565b610609338383610b6d565b5050565b6001600160a01b03851633148061062957506106298533610261565b6106455760405162461bcd60e51b815260040161031c906117e0565b6104a58585858585610c4d565b61065a6106c8565b6001600160a01b0381166106bf5760405162461bcd60e51b815260206004820152602660248201527f4f776e61626c653a206e6577206f776e657220697320746865207a65726f206160448201526564647265737360d01b606482015260840161031c565b6103af81610a32565b6003546001600160a01b031633146105e85760405162461bcd60e51b815260206004820181905260248201527f4f776e61626c653a2063616c6c6572206973206e6f7420746865206f776e6572604482015260640161031c565b600261060982826118be565b6001600160a01b0384166107545760405162461bcd60e51b815260040161031c9061197e565b81518351146107755760405162461bcd60e51b815260040161031c906119bf565b3361078581600087878787610d85565b60005b8451811015610820578381815181106107a3576107a361182e565b60200260200101516000808784815181106107c0576107c061182e565b602002602001015181526020019081526020016000206000886001600160a01b03166001600160a01b0316815260200190815260200160002060008282546108089190611a07565b909155508190506108188161185a565b915050610788565b50846001600160a01b031660006001600160a01b0316826001600160a01b03167f4a39dc06d4c0dbc64b70af90fd698a233a518aa5d07e595d983b8c0526c8f7fb8787604051610871929190611a1a565b60405180910390a46104a581600087878787610d93565b81518351146108a95760405162461bcd60e51b815260040161031c906119bf565b6001600160a01b0384166108cf5760405162461bcd60e51b815260040161031c90611a48565b336108de818787878787610d85565b60005b84518110156109c45760008582815181106108fe576108fe61182e565b60200260200101519050600085838151811061091c5761091c61182e565b602090810291909101810151600084815280835260408082206001600160a01b038e16835290935291909120549091508181101561096c5760405162461bcd60e51b815260040161031c90611a8d565b6000838152602081815260408083206001600160a01b038e8116855292528083208585039055908b168252812080548492906109a9908490611a07565b92505081905550505050806109bd9061185a565b90506108e1565b50846001600160a01b0316866001600160a01b0316826001600160a01b03167f4a39dc06d4c0dbc64b70af90fd698a233a518aa5d07e595d983b8c0526c8f7fb8787604051610a14929190611a1a565b60405180910390a4610a2a818787878787610d93565b505050505050565b600380546001600160a01b038381166001600160a01b0319831681179093556040519116919082907f8be0079c531659141344cd1fd0a4f28419497f9722a3daafe3b4186f6b6457e090600090a35050565b6001600160a01b038416610aaa5760405162461bcd60e51b815260040161031c9061197e565b336000610ab685610eee565b90506000610ac385610eee565b9050610ad483600089858589610d85565b6000868152602081815260408083206001600160a01b038b16845290915281208054879290610b04908490611a07565b909155505060408051878152602081018790526001600160a01b03808a1692600092918716917fc3d58168c5ae7397731d063d5bbf3d657854427343f4c083240f7aacaa2d0f62910160405180910390a4610b6483600089898989610f39565b50505050505050565b816001600160a01b0316836001600160a01b031603610be05760405162461bcd60e51b815260206004820152602960248201527f455243313135353a2073657474696e6720617070726f76616c20737461747573604482015268103337b91039b2b63360b91b606482015260840161031c565b6001600160a01b03838116600081815260016020908152604080832094871680845294825291829020805460ff191686151590811790915591519182527f17307eab39ab6107e8899845ad3d59bd9653f200f220920489ca2b5937696c31910160405180910390a3505050565b6001600160a01b038416610c735760405162461bcd60e51b815260040161031c90611a48565b336000610c7f85610eee565b90506000610c8c85610eee565b9050610c9c838989858589610d85565b6000868152602081815260408083206001600160a01b038c16845290915290205485811015610cdd5760405162461bcd60e51b815260040161031c90611a8d565b6000878152602081815260408083206001600160a01b038d8116855292528083208985039055908a16825281208054889290610d1a908490611a07565b909155505060408051888152602081018890526001600160a01b03808b16928c821692918816917fc3d58168c5ae7397731d063d5bbf3d657854427343f4c083240f7aacaa2d0f62910160405180910390a4610d7a848a8a8a8a8a610f39565b505050505050505050565b610a2a868686868686610ff4565b6001600160a01b0384163b15610a2a5760405163bc197c8160e01b81526001600160a01b0385169063bc197c8190610dd79089908990889088908890600401611ad7565b6020604051808303816000875af1925050508015610e12575060408051601f3d908101601f19168201909252610e0f91810190611b35565b60015b610ebe57610e1e611b52565b806308c379a003610e575750610e32611b6e565b80610e3d5750610e59565b8060405162461bcd60e51b815260040161031c919061133e565b505b60405162461bcd60e51b815260206004820152603460248201527f455243313135353a207472616e7366657220746f206e6f6e2d455243313135356044820152732932b1b2b4bb32b91034b6b83632b6b2b73a32b960611b606482015260840161031c565b6001600160e01b0319811663bc197c8160e01b14610b645760405162461bcd60e51b815260040161031c90611bf8565b60408051600180825281830190925260609160009190602080830190803683370190505090508281600081518110610f2857610f2861182e565b602090810291909101015292915050565b6001600160a01b0384163b15610a2a5760405163f23a6e6160e01b81526001600160a01b0385169063f23a6e6190610f7d9089908990889088908890600401611c40565b6020604051808303816000875af1925050508015610fb8575060408051601f3d908101601f19168201909252610fb591810190611b35565b60015b610fc457610e1e611b52565b6001600160e01b0319811663f23a6e6160e01b14610b645760405162461bcd60e51b815260040161031c90611bf8565b6001600160a01b03851661107b5760005b8351811015611079578281815181106110205761102061182e565b60200260200101516004600086848151811061103e5761103e61182e565b6020026020010151815260200190815260200160002060008282546110639190611a07565b9091555061107290508161185a565b9050611005565b505b6001600160a01b038416610a2a5760005b8351811015610b645760008482815181106110a9576110a961182e565b6020026020010151905060008483815181106110c7576110c761182e565b602002602001015190506000600460008481526020019081526020016000205490508181101561114a5760405162461bcd60e51b815260206004820152602860248201527f455243313135353a206275726e20616d6f756e74206578636565647320746f74604482015267616c537570706c7960c01b606482015260840161031c565b600092835260046020526040909220910390556111668161185a565b905061108c565b80356001600160a01b038116811461118457600080fd5b919050565b6000806040838503121561119c57600080fd5b6111a58361116d565b946020939093013593505050565b6001600160e01b0319811681146103af57600080fd5b6000602082840312156111db57600080fd5b81356111e6816111b3565b9392505050565b634e487b7160e01b600052604160045260246000fd5b601f8201601f1916810167ffffffffffffffff81118282101715611229576112296111ed565b6040525050565b600067ffffffffffffffff83111561124a5761124a6111ed565b604051611261601f8501601f191660200182611203565b80915083815284848401111561127657600080fd5b83836020830137600060208583010152509392505050565b6000602082840312156112a057600080fd5b813567ffffffffffffffff8111156112b757600080fd5b8201601f810184136112c857600080fd5b6112d784823560208401611230565b949350505050565b6000602082840312156112f157600080fd5b5035919050565b6000815180845260005b8181101561131e57602081850181015186830182015201611302565b506000602082860101526020601f19601f83011685010191505092915050565b6020815260006111e660208301846112f8565b600067ffffffffffffffff82111561136b5761136b6111ed565b5060051b60200190565b600082601f83011261138657600080fd5b8135602061139382611351565b6040516113a08282611203565b83815260059390931b85018201928281019150868411156113c057600080fd5b8286015b848110156113db57803583529183019183016113c4565b509695505050505050565b600082601f8301126113f757600080fd5b6111e683833560208501611230565b6000806000806080858703121561141c57600080fd5b6114258561116d565b9350602085013567ffffffffffffffff8082111561144257600080fd5b61144e88838901611375565b9450604087013591508082111561146457600080fd5b61147088838901611375565b9350606087013591508082111561148657600080fd5b50611493878288016113e6565b91505092959194509250565b600080600080600060a086880312156114b757600080fd5b6114c08661116d565b94506114ce6020870161116d565b9350604086013567ffffffffffffffff808211156114eb57600080fd5b6114f789838a01611375565b9450606088013591508082111561150d57600080fd5b61151989838a01611375565b9350608088013591508082111561152f57600080fd5b5061153c888289016113e6565b9150509295509295909350565b6000806040838503121561155c57600080fd5b823567ffffffffffffffff8082111561157457600080fd5b818501915085601f83011261158857600080fd5b8135602061159582611351565b6040516115a28282611203565b83815260059390931b85018201928281019150898411156115c257600080fd5b948201945b838610156115e7576115d88661116d565b825294820194908201906115c7565b965050860135925050808211156115fd57600080fd5b5061160a85828601611375565b9150509250929050565b600081518084526020808501945080840160005b8381101561164457815187529582019590820190600101611628565b509495945050505050565b6020815260006111e66020830184611614565b6000806000806080858703121561167857600080fd5b6116818561116d565b93506020850135925060408501359150606085013567ffffffffffffffff8111156116ab57600080fd5b611493878288016113e6565b600080604083850312156116ca57600080fd5b6116d38361116d565b9150602083013580151581146116e857600080fd5b809150509250929050565b6000806040838503121561170657600080fd5b61170f8361116d565b915061171d6020840161116d565b90509250929050565b600080600080600060a0868803121561173e57600080fd5b6117478661116d565b94506117556020870161116d565b93506040860135925060608601359150608086013567ffffffffffffffff81111561177f57600080fd5b61153c888289016113e6565b60006020828403121561179d57600080fd5b6111e68261116d565b600181811c908216806117ba57607f821691505b6020821081036117da57634e487b7160e01b600052602260045260246000fd5b50919050565b6020808252602e908201527f455243313135353a2063616c6c6572206973206e6f7420746f6b656e206f776e60408201526d195c881bdc88185c1c1c9bdd995960921b606082015260800190565b634e487b7160e01b600052603260045260246000fd5b634e487b7160e01b600052601160045260246000fd5b60006001820161186c5761186c611844565b5060010190565b601f8211156118b957600081815260208120601f850160051c8101602086101561189a5750805b601f850160051c820191505b81811015610a2a578281556001016118a6565b505050565b815167ffffffffffffffff8111156118d8576118d86111ed565b6118ec816118e684546117a6565b84611873565b602080601f83116001811461192157600084156119095750858301515b600019600386901b1c1916600185901b178555610a2a565b600085815260208120601f198616915b8281101561195057888601518255948401946001909101908401611931565b508582101561196e5787850151600019600388901b60f8161c191681555b5050505050600190811b01905550565b60208082526021908201527f455243313135353a206d696e7420746f20746865207a65726f206164647265736040820152607360f81b606082015260800190565b60208082526028908201527f455243313135353a2069647320616e6420616d6f756e7473206c656e677468206040820152670dad2e6dac2e8c6d60c31b606082015260800190565b8082018082111561034857610348611844565b604081526000611a2d6040830185611614565b8281036020840152611a3f8185611614565b95945050505050565b60208082526025908201527f455243313135353a207472616e7366657220746f20746865207a65726f206164604082015264647265737360d81b606082015260800190565b6020808252602a908201527f455243313135353a20696e73756666696369656e742062616c616e636520666f60408201526939103a3930b739b332b960b11b606082015260800190565b6001600160a01b0386811682528516602082015260a060408201819052600090611b0390830186611614565b8281036060840152611b158186611614565b90508281036080840152611b2981856112f8565b98975050505050505050565b600060208284031215611b4757600080fd5b81516111e6816111b3565b600060033d1115611b6b5760046000803e5060005160e01c5b90565b600060443d1015611b7c5790565b6040516003193d81016004833e81513d67ffffffffffffffff8160248401118184111715611bac57505050505090565b8285019150815181811115611bc45750505050505090565b843d8701016020828501011115611bde5750505050505090565b611bed60208286010187611203565b509095945050505050565b60208082526028908201527f455243313135353a204552433131353552656365697665722072656a656374656040820152676420746f6b656e7360c01b606082015260800190565b6001600160a01b03868116825285166020820152604081018490526060810183905260a060808201819052600090611c7a908301846112f8565b97965050505050505056fea26469706673582212209b8143342c7acc2e0b900c8cef48466e3df0ca0345780848228e74e221a27e5564736f6c63430008110033",
  "devdoc": {
    "kind": "dev",
    "methods": {
      "balanceOf(address,uint256)": {
        "details": "See {IERC1155-balanceOf}. Requirements: - `account` cannot be the zero address."
      },
      "balanceOfBatch(address[],uint256[])": {
        "details": "See {IERC1155-balanceOfBatch}. Requirements: - `accounts` and `ids` must have the same length."
      },
      "exists(uint256)": {
        "details": "Indicates whether any token exist with a given id, or not."
      },
      "isApprovedForAll(address,address)": {
        "details": "See {IERC1155-isApprovedForAll}."
      },
      "owner()": {
        "details": "Returns the address of the current owner."
      },
      "renounceOwnership()": {
        "details": "Leaves the contract without owner. It will not be possible to call `onlyOwner` functions anymore. Can only be called by the current owner. NOTE: Renouncing ownership will leave the contract without an owner, thereby removing any functionality that is only available to the owner."
      },
      "safeBatchTransferFrom(address,address,uint256[],uint256[],bytes)": {
        "details": "See {IERC1155-safeBatchTransferFrom}."
      },
      "safeTransferFrom(address,address,uint256,uint256,bytes)": {
        "details": "See {IERC1155-safeTransferFrom}."
      },
      "setApprovalForAll(address,bool)": {
        "details": "See {IERC1155-setApprovalForAll}."
      },
      "supportsInterface(bytes4)": {
        "details": "See {IERC165-supportsInterface}."
      },
      "totalSupply(uint256)": {
        "details": "Total amount of tokens in with a given id."
      },
      "transferOwnership(address)": {
        "details": "Transfers ownership of the contract to a new account (`newOwner`). Can only be called by the current owner."
      },
      "uri(uint256)": {
        "details": "See {IERC1155MetadataURI-uri}. This implementation returns the same URI for *all* token types. It relies on the token type ID substitution mechanism https://eips.ethereum.org/EIPS/eip-1155#metadata[defined in the EIP]. Clients calling this function must replace the `\\{id\\}` substring with the actual token type ID."
      }
    },
    "version": 1
  },
  "userdoc": {
    "kind": "user",
    "methods": {},
    "version": 1
  },
  "storageLayout": {
    "storage": [
      {
        "astId": 144,
        "contract": "contracts/ERC1155Item.sol:ERC1155Item",
        "label": "_balances",
        "offset": 0,
        "slot": "0",
        "type": "t_mapping(t_uint256,t_mapping(t_address,t_uint256))"
      },
      {
        "astId": 150,
        "contract": "contracts/ERC1155Item.sol:ERC1155Item",
        "label": "_operatorApprovals",
        "offset": 0,
        "slot": "1",
        "type": "t_mapping(t_address,t_mapping(t_address,t_bool))"
      },
      {
        "astId": 152,
        "contract": "contracts/ERC1155Item.sol:ERC1155Item",
        "label": "_uri",
        "offset": 0,
        "slot": "2",
        "type": "t_string_storage"
      },
      {
        "astId": 7,
        "contract": "contracts/ERC1155Item.sol:ERC1155Item",
        "label": "_owner",
        "offset": 0,
        "slot": "3",
        "type": "t_address"
      },
      {
        "astId": 1514,
        "contract": "contracts/ERC1155Item.sol:ERC1155Item",
        "label": "_totalSupply",
        "offset": 0,
        "slot": "4",
        "type": "t_mapping(t_uint256,t_uint256)"
      }
    ],
    "types": {
      "t_address": {
        "encoding": "inplace",
        "label": "address",
        "numberOfBytes": "20"
      },
      "t_bool": {
        "encoding": "inplace",
        "label": "bool",
        "numberOfBytes": "1"
      },
      "t_mapping(t_address,t_bool)": {
        "encoding": "mapping",
        "key": "t_address",
        "label": "mapping(address => bool)",
        "numberOfBytes": "32",
        "value": "t_bool"
      },
      "t_mapping(t_address,t_mapping(t_address,t_bool))": {
        "encoding": "mapping",
        "key": "t_address",
        "label": "mapping(address => mapping(address => bool))",
        "numberOfBytes": "32",
        "value": "t_mapping(t_address,t_bool)"
      },
      "t_mapping(t_address,t_uint256)": {
        "encoding": "mapping",
        "key": "t_address",
        "label": "mapping(address => uint256)",
        "numberOfBytes": "32",
        "value": "t_uint256"
      },
      "t_mapping(t_uint256,t_mapping(t_address,t_uint256))": {
        "encoding": "mapping",
        "key": "t_uint256",
        "label": "mapping(uint256 => mapping(address => uint256))",
        "numberOfBytes": "32",
        "value": "t_mapping(t_address,t_uint256)"
      },
      "t_mapping(t_uint256,t_uint256)": {
        "encoding": "mapping",
        "key": "t_uint256",
        "label": "mapping(uint256 => uint256)",
        "numberOfBytes": "32",
        "value": "t_uint256"
      },
      "t_string_storage": {
        "encoding": "bytes",
        "label": "string",
        "numberOfBytes": "32"
      },
      "t_uint256": {
        "encoding": "inplace",
        "label": "uint256",
        "numberOfBytes": "32"
      }
    }
  }
}